:100000000C94F6000C943D010C943D010C943D01C0
:100010000C943D010C943D010C943D010C943D0168
:100020000C943D010C943D010C94D4190C94A81A25
:100030000C94D1140C943D010C943D010C943D01A1
:100040000C943D010C943D010C943D010C943D0138
:100050000C943D010C9428150C943D010C943D0129
:100060000C943D010C943D010C943D010C943D0118
:100070000C943D010C943D010C943D010C943D0108
:100080000C943D010C943D010C943D010C943D01F8
:100090000C943D010C943D010C943D010C943D01E8
:1000A0000C943D010C943D010C943D015000510015
:1000B00052004F001803670072006F006F00760057
:1000C000650062006F0061007200640000001003B0
:1000D000690061006E006B006C0075006700000035
:1000E0000403090409023B00020100A0FA0904000C
:1000F0000001030101000921110100012240000754
:1001000005810308000A0904010001030000000939
:100110002111010001227B000705820320000A1241
:10012000011001000000084C4B4247010001020091
:100130000105010902A10185020901A100050919B2
:10014000012908150025019508750181020501099D
:100150003009311581257F9502750881060938150A
:1001600081257F950175088106050C0A38021581E5
:10017000257F950175088106C0C005010980A10190
:10018000850319012AB700150126B70095017510DE
:100190008100C0050C0901A101850419012AA002F2
:1001A000150126A002950175108100C00501090600
:1001B000A101050719E029E715002501950875013A
:1001C00081029501750881010507190029FF1500B5
:1001D00026FF009506750881000508190129059577
:1001E0000575019102950175039101C011241FBE8F
:1001F000CFEFDAE0DEBFCDBF04B603FE27C08091AB
:10020000160290911702A0911802B091190287303E
:10021000904BA740B04BD1F41092160210921702E7
:10022000109218021092190214BE84B7877F84BFFF
:100230000FB6F894A8958091600088618093600063
:10024000109260000FBEE0E0F8E3099511E0A0E035
:10025000B1E0E0EEF9E302C005900D92AC37B107D2
:10026000D9F722E0ACE7B1E001C01D92A631B20798
:10027000E1F70E940E170C94CA1C0C94000081E058
:10028000089581E008950C94410108950C9445016E
:100290001F93CF93DF9300D000D00F92CDB7DEB77E
:1002A00049835A836B833091A20189819A813111EC
:1002B0001DC06623B9F02223A9F00E944712182F0F
:1002C000682F89819A810E94F41169817A81812F36
:1002D0000F900F900F900F900F90DF91CF911F9183
:1002E0000C94F6010E942012182FEFCF0E944712A3
:1002F00069817A81EDCFFC01262F40815181628195
:10030000738184810C944801CF93DF93EC0160E00A
:100310000E947B01BE01DF91CF910C9446010E94A7
:1003200077150E948613811102C00E942A140C9432
:10033000DD030C94E00308950E94D60D0E949B01FA
:100340002FEF84E39CE0215080409040E1F700C013
:1003500000000C944C150F931F93CF93DF93EC0187
:1003600061E00E947B018C01BE010E944301882351
:1003700029F1BE01C8010E9479078823F9F0BE0166
:10038000C8010E94CB078823C9F0BE01C8010E94A2
:10039000EE08882399F08A81882339F001158CE5CD
:1003A000180751F00F3D1C4579F0CE01DF91CF9138
:1003B0001F910F910C943F010E949C0180E0DF91FE
:1003C000CF911F910F9108950E942A14F7CF08959D
:1003D0000C94E70181E008950C94EA01CF93C82FB3
:1003E0000E94E8018C2FCF910C94EC01272F280F4D
:1003F0003327331FF901EE0FFF1FEE0FFF1FE60F2C
:10040000F11DEE0FFF1FE455FF4F85919491089564
:10041000CF93DF930E94F6010E940203EC01811545
:1004200021E5920708F042C0811530E5930708F0F6
:100430009DC0883E910530F5803E910508F092C040
:10044000883A910588F4853A910508F084C0813096
:10045000910509F487C0009709F484C0049708F057
:1004600081C0D0E0C0E07EC08F3B9105D0F7C85A74
:10047000D0E0CC0FDD1FCB5EDE4F0990D881C02DC0
:10048000D46470C08115904250F4C11581E0D80742
:1004900008F068C0CD3ED10520F3D06563C0C1151A
:1004A00090E4D907F0F2DF70D06A5CC0811525E5D1
:1004B000920700F5811534E5930708F08BC081158C
:1004C00043E5940708F073C0C11582E5D80708F426
:1004D00069C0CE018370992721E030E002C0220F6D
:1004E000331F8A95E2F7C695C69580E2C89FE00162
:1004F000112454C0C11599E5D907A8F4C11528E500
:10050000D20708F06CC0C11536E5D30708F0A9CFB3
:100510008C2F0E949903C82FD0E0DC2FCC27CC274A
:10052000DF71D0621FC0C1154AE5D40708F45CC072
:10053000CE0190568115904208F093CF8D2F8F7188
:100540000E94990390E0982F882788279F719C012B
:100550002C2BE901E6CFC55AD0E0CD5BDE4FC88138
:10056000D0E0D064CE01DF91CF910895E4E096957C
:100570008795EA95E1F783702C2F269526952370B1
:1005800040E2249F90011124382B8C2F8370C1E00E
:10059000D0E002C0CC0FDD1F8A95E2F7C22BD32B2F
:1005A000DC68E0CFDC2FCC27C16FD06ADBCF837053
:1005B000992721E030E002C0220F331F8A95E2F72D
:1005C000C695C69590E2C99FE0011124C22BD32B9A
:1005D000DA68C8CFD82FCC27C46FD06AC3CFDC2F3E
:1005E000CC27C06FD06ABECF8C2F8F700E9499032A
:1005F00034E0D695C7953A95E1F7CF709C2FEC0182
:10060000D069B0CF82389105B1F1B0F48133910552
:1006100009F475C048F48932910509F469C08A3239
:10062000910509F473C008958533910509F459C003
:100630008933910501F10895833E9105A9F138F4BC
:10064000803E9105F9F0823E910549F10895863E7C
:100650009105A9F1873E9105C9F1843E910519F5EF
:100660002091080221FF1FC08091070284FD14C061
:1006700087EE90E00895209107022370A1F080EEAC
:1006800090E008952091070220FD47C030910802B4
:1006900030FF09C024FF44C090E080E004C02091F6
:1006A000070222FDF7CF08952091070222FD3BC0EB
:1006B0003091080230FDE3CF24FFF5CFEDCF20913C
:1006C000070223FFF0CF24FDE7CFD2CF209107020E
:1006D00023FD2CC03091080231FFEECF84EE90E074
:1006E00008952091070225FFDECF89E290E008956A
:1006F0002091070225FFD7CF85E390E00895209150
:10070000070226FFD0CF8AE290E0089520910702E9
:1007100026FFC9CF81E390E0089589E390E0089532
:1007200083EE90E0089582EE90E0089586EE90E0EA
:1007300008959091070292FF06C0282F2871283053
:10074000F9F4877F846093FF06C0282F2871283131
:10075000F1F4877E84612091080220FF06C0382FC3
:1007600038713830D9F4877F816021FF06C0282F87
:1007700028712831D1F4877E816194FD877E0895A8
:10078000282F24712430F9F68B7F8860DCCF282F46
:100790002471243101F78B7E8861DDCF382F3171D0
:1007A000313019F78E7F8860E0CF282F21712131F9
:1007B00021F78E7E8861E1CF08950C94DC030895C3
:1007C0000C94DF03E82FF0E0EE5FFD4F8081089589
:1007D0000895A6E4B1E041E050E08D918F3F91F0A3
:1007E000E82FE295EF70F0E061A18F709A0101C0EF
:1007F000220F8A95EAF7922F9095962391A382A1D2
:10080000822B82A381E0AA34B80739F71092010243
:100810001092020281E00E944B040C948F01CF934E
:10082000A6E4B1E050E040E030E061E070E02D91FE
:100830002F3FA9F0E22FE295EF70F0E080A190E069
:100840002F7002C0959587952A95E2F780FD21C00B
:10085000CB01042E01C0880F0A94EAF7382B4F5FB2
:100860005F4F4430510519F780910102C0E08317B2
:1008700019F030930102C1E02C2F41E062E072E0F8
:1008800081E092E00E944C040E9499018C2FCF914C
:10089000089580E0E3CF0895FF920F931F93CF93C5
:1008A000DF93F82E092F162FD72FC42F222349F0BC
:1008B00081E0809380010E94011590937F018093D5
:1008C0007E01809180018823A1F080917E0190912A
:1008D0007F010E941915069760F0EF2DF02FA12FD0
:1008E000BD2FCE0FDF2FD11DEC17FD0741F4109265
:1008F0008001DF91CF911F910F91FF900895819119
:100900008D93F2CF8091870180FF12C06091050125
:1009100085E0689FB0011124759567957595679579
:1009200060387105A8F561157105A1F1862F08954C
:1009300081FF09C06091050185E0689FB001112425
:1009400075956795EDCF6091050182FD0AC0809194
:1009500086018823D1F090910401609105018917E7
:1009600028F085E0689FB0011124DACF869FB0019E
:10097000112485E0869F9001879F300D1124692FF7
:1009800070E0C9010E945A1CCBCF65E070E0CECF69
:100990008FE7089581E008958091870180FF0CC062
:1009A0006091010170E07595679575956795611582
:1009B000710549F1862F089581FF06C060910101FC
:1009C00070E075956795F3CF6091010182FD0BC0D2
:1009D000909185019923A1F060910001809101011E
:1009E000961738F0682F70E06038710500F38FE7D4
:1009F0000895899FC001112470E00E945A1CF4CF11
:100A000061E070E0D7CF81E008958D3E31F40E941F
:100A10008204819580938B0108958E3E19F40E9483
:100A20008204F8CF8F3E31F40E9482048195809336
:100A30008A010895803F19F40E948204F8CF893F0B
:100A400029F40E94CC0480938C0108958A3F21F4FC
:100A50000E94CC048195F7CF8B3F31F40E94CC04E7
:100A6000819580938D0108958C3F19F40E94CC04E8
:100A7000F8CF9FE0980F983070F4815F990B21E0D8
:100A800030E001C0220F8A95EAF780918901822B1C
:100A90008093890108958D3F31F4809187018160B1
:100AA0008093870108958E3F21F4809187018260B1
:100AB000F7CF8F3FB9F7809187018460F1CF4091E4
:100AC0008A018D3E59F480918B0187FF0DC01092F1
:100AD0008B0141110BC01092860108C08E3E81F43B
:100AE00080918B0118169CF3442381F080918C0136
:100AF00090918D01892B09F05AC0109285010895BB
:100B00008F3E49F447FFF0CF10928A0180918B010C
:100B10008111ECCFE0CF803F19F41416ACF3E4CF91
:100B200090918C01893F29F41916F4F610928C01EA
:100B3000DBCF8A3F19F497FFD7CFF8CF90918D0183
:100B40008B3F29F497FFD0CF10928D01CDCF8C3FF2
:100B500019F41916CCF3C8CF9FE0980F983090F491
:100B6000815F990B21E030E0B90102C0660F771F69
:100B70008A95E2F7CB018095909189018923809332
:100B80008901B2CF8D3F31F4809187018E7F8093B0
:100B90008701AACF8E3F21F4809187018D7FF7CF07
:100BA0008F3F09F0A1CF809187018B7FF0CF08950F
:100BB0000E9401159C0190918A0180918B01982BD4
:100BC00021F0309384012093830190918C018091D6
:100BD0008D01982B21F0309382012093810188E8C8
:100BE00091E00C943409EF92FF920F931F93CF93EF
:100BF000DF9300D000D000D0CDB7DEB786E0E8E8C4
:100C0000F1E0DE01119601900D928A95E1F7E090F6
:100C10008A01F0908B0100918C0110918D0110924E
:100C20008A0110928B0110928C0110928D018E2DF1
:100C30008F2991F080918301909184010E94191570
:100C4000AC0190918601992309F43FC0809106017F
:100C50008417150608F447C0802F812B91F08091EE
:100C60008101909182010E941915AC01909185013A
:100C7000992309F477C0809102018417150608F4BE
:100C80007FC080918A0190918B01892B90918C017A
:100C9000892B90918D01892B11F00E94D80586E057
:100CA000FE013196A8E8B1E001900D928A95E1F736
:100CB00026960FB6F894DEBF0FBECDBFDF91CF9161
:100CC0001F910F91FF90EF900895209107018AE006
:100CD000289F900111242417350708F0BDCF9F5F8E
:100CE0009093860102C09F3FD1F7EE2059F00E94F9
:100CF00082049FEF1E140CF491E0899F802D112433
:100D000080938A01FF2059F00E9482049FEF1F14F4
:100D10000CF491E0899F802D112480938B013091F8
:100D20008A01332309F498CF20918B01222309F4FF
:100D300093CF45EB3403C0011124992359F09093CC
:100D40008A0145EB240390011124332339F03093B9
:100D50008B0182CF81E080938A01F3CF81E0809381
:100D60008B017ACF209103018AE0289F9001112402
:100D70002417350708F085CF9F5F9093850102C047
:100D80009F3FD1F7002359F00E94CC049FEF10162B
:100D90000CF491E0899F802D112480938C01112304
:100DA00059F00E94CC049FEF11160CF491E0899F3A
:100DB000802D112480938D0130918C01332309F40F
:100DC00060CF20918D01222309F45BCF45EB3403E2
:100DD000C0011124992359F090938C0145EB240311
:100DE00090011124332339F030938D014ACF81E0F3
:100DF00080938C01F3CF81E080938D0142CF86E018
:100E0000E8E8F1E0DF011D928A95E9F7109286018A
:100E1000109285011092870108950F931F93CF932D
:100E2000DF93C42FD22FFC0182818823C9F0409325
:100E300090010E94011590938F0180938E0180E2B2
:100E40008C0F883008F050C0C77081E001C0880F57
:100E5000CA95EAF7DF91CF911F910F910C946A0B1D
:100E600010919001141335C080918E0190918F01E3
:100E70000E941915883C910560F5C0E2CD0F1D1741
:100E8000B9F080E2810F883040F4177081E001C032
:100E9000880F1A95EAF70E94710BC83048F481E078
:100EA0009D2F977001C0880F9A95EAF70E946A0BF0
:100EB000802F0E94620BC830B8F4D77081E001C067
:100EC000880FDA95EAF7DF91CF911F910F910C947B
:100ED000710B80E28C0F883038F4C77081E001C05C
:100EE000880FCA95EAF7EFCFDF91CF911F910F914D
:100EF00008950F939C01CB01243F4CE5340759F131
:100F0000A8F4293DFCE53F0701F12A3D4CE53407F3
:100F1000D1F1283D3C4591F406E221EE41EE68ED29
:100F20007CE50E940D0780E00F910895263FFCE5C7
:100F30003F07E9F0B0F0273F3C45F9F0FC01828122
:100F4000882339F110929001EFCF07E225EE45EEAC
:100F500069ED7CE5E6CF06E221EE40EE64EF7CE54C
:100F6000E0CF07E225EE44EE65EF7CE5DACF06E25E
:100F700021EE42EE66EF7CE5D4CF07E225EE46EEA9
:100F800067EF7CE5CECF08E221E045EE6AED7CE537
:100F9000C8CF81E0C9CFCF93DF93EC01FB01828101
:100FA000882309F419C1C230FCE5DF07C0F1C6315E
:100FB0009CE5D90730F09E012B5F3C452930310577
:100FC00070F50E9499139093080280930702C03134
:100FD000ECE5DE0709F4CFC008F05BC0C8308CE553
:100FE000D80709F4B6C088F5C430ECE5DE0709F48B
:100FF000A8C0C0F4C2308CE5D80709F49CC0809129
:1010000007028260C330DC4509F498C08091070272
:10101000909108020E94A7130E94D60D80E0DF91F4
:10102000CF910895809107028061C630ECE5DE071C
:1010300009F484C0809107028860C730DC4508F459
:101040007DC080910702806279C0CC308CE5D807E2
:1010500009F489C070F4809107028C60CA30ECE515
:10106000DE0709F46BC008F478C0809107028E7F18
:1010700065C0CE308CE5D80709F479C080910702AD
:101080008B7FCF30DC4508F459C0809107028F7EFA
:1010900055C0CC3FECE5DE0709F457C030F5C3314D
:1010A0008CE5D80709F46FC078F4C131ECE5DE07B0
:1010B00009F465C0C231DC4509F0A8CF0E94D60D05
:1010C000809107028F773AC0C5318CE5D80709F4C3
:1010D00062C008F476C0809108028160CB3FDC4595
:1010E00009F094CF8093080291CFC115FDE5DF0789
:1010F00009F44DC088F4809108028D7FCE3F9CE5B5
:10110000D90781F3809108028E7FCF3FDC4550F3F1
:10111000809108028360E6CFC230FDE5DF0709F465
:1011200059C008F444C080E0C330DD4509F06ECFFB
:101130000E942C146BCF809107028160809307027C
:1011400065CF809107028460F9CF809108028260A8
:10115000C9CF809107028064F1CF0E94D60D8091A3
:1011600007028068EBCF809107028D7FE7CF8091E7
:101170000702877FE3CF809107028F7DDFCF8091C9
:1011800007028F7BDBCF80910702837FD7CF8091CF
:1011900008028C7FA7CF8091070282FB992790F9E4
:1011A00021E0922790FB82F990FB83F9C7CF8091D1
:1011B0000802982F909591708E7F892B90FB81F972
:1011C00091CF0E94D60D90910702892F97FB87F946
:1011D0008058B4CF81E0ACCF81E021CFCF93DF93B3
:1011E000EB0186319C4511F50E94DC129A8199230E
:1011F00099F08A7A91E009F490E09093910181113D
:1012000009C089E20E94B7120E941B1380E0DF919F
:10121000CF91089585E3F6CF80919101811104C0AB
:1012200089E20E94BE12F0CF85E3FBCF81E0EFCFD1
:1012300090939701809396010895E0919601F09123
:101240009701309721F00190F081E02D099480E022
:101250000895E0919601F0919701309721F0028076
:10126000F381E02D09940895E0919601F0919701A2
:10127000309739F022E0DC012C930480F581E02DD9
:101280000994089520919401309195012817390708
:1012900071F09093950180939401E0919601F09103
:1012A0009701309721F00680F781E02D0994089589
:1012B00020919201309193012817390771F0909392
:1012C000930180939201E0919601F09197013097FC
:1012D00021F00084F185E02D099408950E940D15F8
:1012E00060939E0170939F018093A0019093A10150
:1012F00060939A0170939B0180939C0190939D0150
:10130000089585B7806885BF85B7806885BF0895D3
:10131000089508950C94880908950C948C090E94EE
:1013200081098EE793E10E9470150E9489090C944F
:101330008A0981E008950C949909089508950E94FE
:10134000F8140E94E9030E948B150C948D09EF920A
:10135000FF920F931F93CF93DF93CDB7DEB72A97FA
:101360000FB6F894DEBF0FBECDBF0E949D090E944C
:101370009E090E940F0481110E946E0980E00E9464
:10138000E203182F80919901E82EE126811709F4D4
:1013900045C08091F50181FD0E94E803F12C01E038
:1013A0008E2D8023B1F10E949B09882399F0FE8243
:1013B0001F82102381E009F480E088870E940115D4
:1013C0008160782F9A8789874E815F8168858A85B9
:1013D0000E942C0A809199010827009399010E948C
:1013E000F3050E941D0990919801891741F10E940F
:1013F0001D09809398012A960FB6F894DEBF0FBEA0
:10140000CDBFDF91CF911F910F91FF90EF900C9482
:10141000EE01F394000F84E0F812C2CF8FEF8983BE
:101420008A831B820E9401158160782F9D838C83A3
:1014300049815A816B818D810E942C0AD0CF2A96D6
:101440000FB6F894DEBF0FBECDBFDF91CF911F91D5
:101450000F91FF90EF900895DF92EF92FF920F931C
:101460001F93CF93DF93CDB7DEB72B970FB6F894CA
:10147000DEBF0FBECDBF7A878B87F42E052F162FC8
:10148000E72ED82E61110E94FC121E821D827E2D35
:10149000EC82DD824F2D502F612F8D2D9E812B965A
:1014A0000FB6F894DEBF0FBECDBFDF91CF911F9175
:1014B0000F91FF90EF90DF900C944C10FC01808115
:1014C00091810C948912CF93C82F882309F48BC083
:1014D0008238C1F40E941D0981FD85C089E30E9404
:1014E000B7120E941B132FEF81EE94E02150804031
:1014F0009040E1F700C0000089E30E94BE12CF9146
:101500000C941B138338A1F40E941D0980FD6BC04D
:1015100083E50E94B7120E941B132FEF81EE94E027
:10152000215080409040E1F700C0000083E5E5CF06
:101530008438A1F40E941D0982FD55C087E40E94F1
:10154000B7120E941B132FEF81EE94E021508040D0
:101550009040E1F700C0000087E4CFCF8CEF8C0F04
:10156000813A90F46C2F80910801909109010E94BA
:101570004314882329F08C2F0E94BE120E941B1353
:101580008C2F0E94B712BBCF80E28C0F883048F4BA
:10159000C77081E001C0880FCA95EAF70E94DF1288
:1015A000AECFEBE5EC0FE33040F4F0E0E858FE4F4F
:1015B000808190E0CF910C944209E8E5EC0FE7318F
:1015C00050F4F0E0EE0FFF1FE65BFE4F808191814B
:1015D000CF910C945809CD3E30F08C2F0E94050518
:1015E000CF910C94D805CF910895882309F452C067
:1015F000823871F40E941D0981FF4CC089E30E946A
:10160000B7120E941B1389E30E94BE120C941B1395
:10161000833859F40E941D0980FF3CC083E50E9475
:10162000B7120E941B1383E5EFCF843859F40E9450
:101630001D0982FF2FC087E40E94B7120E941B136E
:1016400087E4E2CF9CEF980F913AF0F290E2980F86
:10165000983050F4877091E001C0990F8A95EAF7AD
:10166000892F0E94E512D2CF9BE5980F933020F48A
:1016700090E080E00C94420998E5980F973120F4AF
:1016800090E080E00C9458098D3E20F00E945F05A8
:101690000C94D80508951F93CF93DF93182FEB0177
:1016A0000E94630A209731F4812FDF91CF911F911F
:1016B0000C94F50A8FE99FE00197F1F700C0000054
:1016C0002197F0CF70E060E0893311F460E570E0BD
:1016D0000C944B0B882321F00E94DF120C941B13F7
:1016E0000895882321F00E94E5120C941B1308959D
:1016F000BF92CF92DF92EF92FF920F931F93CF93FF
:10170000DF936C01D62FC72FFC0112810581029552
:101710000F700E94D512E82E8823A1F0E12E11232C
:1017200089F08C2F807F803429F080E28D0FE12CAE
:10173000883040F082E00E9466130E94D51291E04A
:10174000E82EE926BC2EB2949FE0B922FBE0FB15FF
:1017500098F1EB2DF0E0E453F34E0C946E1C0C2F3B
:101760000F70C07F11F00295007F1123A9F00023B4
:1017700059F080E28D0F883010F0D11109C0802F10
:101780000E94DF120E941B138D2F0E94630A14C057
:10179000802F0E94EF12F6CF8D2F0E94F50A0023B2
:1017A00059F080E28D0F883010F0D1112CC0802FBD
:1017B0000E94E5120E941B132B2D2850330B24305E
:1017C000310520F40E941D090E94EE01EE2009F46B
:1017D0008EC10E94D11280FD8AC1F60112820E9440
:1017E000CB120E945811C6010E94980D0E94CB1284
:1017F000DF91CF911F910F91FF90EF90DF90CF90ED
:10180000BF900C947911802F0E94F512D3CF2C2F0A
:101810002F70F22EC07FC03219F0F29480EFF822C0
:10182000DD2369F0D13049F1112391F1002351F109
:10183000F601858180FFA8CF8F70858323C0112397
:1018400081F0011106C00E9402138F290E946A0BC9
:10185000B3CF0130C1F70E9402138F290E940813F1
:10186000ABCF011106C00E9411138F2D0E94710B86
:10187000A3CF013009F4A0CFF6CF112329F0063011
:1018800008F09ACF8F2DE2CF053008F095CFEDCF3D
:10189000002359F3D93349F4FFEF27EE33E0F15039
:1018A00020403040E1F700C000008D2F0E94F50A73
:1018B00083CF8C2F86958695837069F0813009F0EF
:1018C0007BCF8D2F9C2F9370111102C090E080E090
:1018D0000E94580971CF8D2F9C2F9370111102C057
:1018E00090E080E00E94420967CF8D2F112329F0FC
:1018F0000E9405050E94D8055FCF0E945F05FACFC0
:101900008C2F837009F041C0111156CF4D2F429595
:1019100046954770440F440F0D2F0F7010E030E0D4
:1019200020E0042E04C0000F111F221F331F0A9451
:10193000D2F760E070E0CB01D4FF0FC06FE070E041
:1019400080E090E004C0660F771F881F991F4A95BA
:10195000D2F76095709580959095C695C695C370A1
:10196000602B712B822B932BC23049F058F4C1307D
:1019700019F00E940A1120CF0E94F8101DCF0E947A
:101980001C111ACF0E94F61017CF8695112311F063
:101990008C2F8170882309F40FCF4D2F42954695E7
:1019A0004770440F440F0D2F0F7010E030E020E01F
:1019B000042E04C0000F111F221F331F0A94D2F7F8
:1019C00060E070E0CB01D4FF0FC06FE070E080E01A
:1019D00090E004C0660F771F881F991F4A95D2F7C1
:1019E0006095709580959095C695C695C370602B4F
:1019F000712B822B932BC23049F058F4C13019F06F
:101A00000E94CF11D9CE0E94BD11D6CE0E94E11105
:101A1000D3CE0E943211D0CECF70112329F08C2F5B
:101A20000E9458118D2F12CF8D2F0E94710B8C2F79
:101A30000E947911C1CED23F89F160F4D03FC9F044
:101A4000D13F29F1112309F442C001119DCE8C2F01
:101A50008F7121C0D33F39F1D43FA1F7112369F130
:101A6000CF718C2F0E94581163E08C2F0E9451136C
:101A7000A3CE112341F0053008F09ECE8C2F8F713C
:101A80000E949C1199CE063008F096CEF7CF8C2F8D
:101A90008F71112369F20E9458118ECE8C2F8F7195
:101AA0001123C9F3C5CF112329F08C2F8F710E9408
:101AB000431182CE0E943E117FCE81E00E946613C8
:101AC000023008F479CE82E00E94661375CE0023BE
:101AD00059F0D93309F0E9CE8FEF97EEE3E081506A
:101AE0009040E040E1F7DFCE8C2F8F71A1CFDF91E6
:101AF000CF911F910F91FF90EF90DF90CF90BF900B
:101B000008950F931F93CF93DF93EC016881798140
:101B10008A810E9493128C010E94F3110E94F51099
:101B2000B801CE01DF91CF911F910F910C94780BEA
:101B3000CF93DF93EC018B819C81892B29F08881E5
:101B4000998189238F3F59F4DF91CF910895CE0178
:101B50000E94810DCE01DF91CF910C948401CE01C2
:101B60000E94AB018111F3CF0E94D512882361F34B
:101B70008A81882349F382E0DF91CF910C94661328
:101B800090E080E00E94420990E080E00E945809C5
:101B90000E94FC120E94FF120E941B130E94FF066B
:101BA0000C94D8050E94C5120C94C00D0E94EC1232
:101BB0000C94D20DE92FE295EF70E250EE3070F404
:101BC000F0E0E852F34E0C946E1C803F19F020F4C4
:101BD000883E20F481E00895843FE1F380E0089599
:101BE000883EC0F3813FD1F7F5CF93FB882780F97A
:101BF00008950E9489120C94DA0DCF93DF9300D0E0
:101C000000D00F92CDB7DEB70F900F900F900F90CE
:101C10000F90DF91CF910895CF93DF9300D000D044
:101C200000D0CDB7DEB726960FB6F894DEBF0FBE54
:101C3000CDBFDF91CF9108951F93CF93DF93C091D4
:101C4000A30116E08091A4018C1304C0DF91CF9111
:101C50001F910895D0E01C9FF0011D9FF00D1124ED
:101C6000EB55FE4F40815181628173818481958162
:101C70000E940C0E2196C770E5CF4091D50150917E
:101C8000D6016091D7017091D8018091D9019091CE
:101C9000DA010C940C0E1F93CF93DF938091DA013D
:101CA000807FA9F48091D701882389F08091A301D6
:101CB000C091A4016091D5017091D601A091D80185
:101CC000B091D901D62FD72316E0C81304C0DF91F5
:101CD000CF911F91089590E0109711F0DF3F19F414
:101CE00001968770F2CF189F9001199F300D112433
:101CF000F901EB55FE4F41814713F2CF4081461366
:101D0000EFCF42814111ECCF438154814A1B5B0BE1
:101D1000483C510528F78091DA018F7080618093EB
:101D2000DA01F901E655FE4F80818F708061808372
:101D300085ED91E00E94980DDF91CF911F910C9459
:101D40001C0EAF92BF92CF92DF92EF92FF920F9351
:101D50001F93CF93DF93CDB7DEB761970FB6F8949B
:101D6000DEBF0FBECDBF8C0185E0F801DE011D9600
:101D700001900D928A95E1F7F80140815181E2804E
:101D800085EDC82E81E0D82E6091D8017091D901DF
:101D90006115710509F461C19091D5012091D601B9
:101DA000892F82238F3F09F458C1A380B480F0901B
:101DB000D701F501E61BF70BFF2009F4FCC0809169
:101DC000DA01382F307FE83CF10508F0B2C031115C
:101DD00079C0FE2C251323C0941321C0E1101FC02D
:101DE0008F7080618093DA010E943D0EC6010E94CF
:101DF000980D8091DA01F80185838F2D61960FB6D9
:101E0000F894DEBF0FBECDBFDF91CF911F910F9130
:101E1000FF90EF90DF90CF90BF90AF900895AB28E8
:101E200029F0842F85238F3F09F033C180E0F82FFC
:101E3000F170DF2E80FF3CC08091A3012091A401AE
:101E400036E0821315C04D875E878D859E850E9482
:101E50008912292F22952F702230F0F0243018F5A6
:101E60009F70F1F0F8019581907FD1F4D12C1EC0C4
:101E700090E0389FF001399FF00D1124EB55FE4F93
:101E80006181651306C06081641303C062816E11B5
:101E90000FC001968770D5CF9F7011F0882331F362
:101EA000805E883018F3C8010E94980DFD2CA5CFE4
:101EB000EE2009F4A2CF8091DA0181608093DA01EB
:101EC000F12C9BCF251306C0941304C0F801EE201B
:101ED00009F48DC04D875E878D859E850E94F90D22
:101EE000882319F1EE2009F18091DA01803270F037
:101EF0002091D5013091D60138872F831986BB8672
:101F0000AA868C87CE0107960E94980D86E0F8017C
:101F1000A5EDB1E001900D928A95E1F70E944B0E7C
:101F20000E943D0EFF24F39468CFC8010E94980DD3
:101F3000F9CF311113C07A2DB98AA88A6E2D8989FB
:101F40000E94FD0D85ED91E00E94980D86E0F6015E
:101F500011928A95E9F70E943D0EB2CF25130FC06A
:101F600094130DC0E1100BC0F8018583C8010E94D5
:101F7000980D86E0F60111928A95E9F73ECF4D87DC
:101F80005E878D859E850E94F90D882371F2EE2073
:101F900061F28091DA01803208F4B8CF2091D50146
:101FA0003091D6013A8329831B82BD82AC828E8315
:101FB000CE010196A9CFE83CF10508F041C0FE2C06
:101FC000EE2009F4B2CF25132AC0941328C08091C3
:101FD000DA0180FD1BC0982F907FC1F0F801858346
:101FE000903F31F0982F907F905F8F70892B858381
:101FF000C8010E94980D86E0F801A5EDB1E00190BE
:102000000D928A95E1F70E943D0EF7CE86E0F80129
:10201000A5EDB1E001900D928A95E1F7EECE4D87E6
:102020005E878D859E850E94F90D81116FCF80910D
:10203000DA0181608093DA01C8010E94980DDDCE3B
:102040007A2DB98AA88A6E2D89890E94FD0D86E0B5
:10205000F60111928A95E9F7D6CFEE2009F465CF03
:102060004D875E878D859E850E94F90DF82E882309
:1020700009F45BCF86E0F801A5EDB1E001900D9287
:102080008A95E1F785ED91E00E945E0A0E944B0E71
:10209000BACF81E08E25CBCE1F93CF93DF93CDB700
:1020A000DEB72C970FB6F894DEBF0FBECDBF4F83BF
:1020B000588769877A878B879C87CE0107960E940D
:1020C000A10E882369F08A859B85892B39F04F8181
:1020D0005885842F85238F3F09F071C016E05FC0BB
:1020E00086E0FE013796DE01119601900D928A95E9
:1020F000E1F78A859B85892B89F38F8198858923D0
:102100008F3F61F32091A40130E0C90101968770EF
:1021100099274091A3014817190671F40E94D60D22
:102120001092A4011092A30186E0E5EDF1E0DF0139
:102130001D928A95E9F7D2CF96E0929FD001939FA6
:10214000B00D1124AB55BE4FFE01319601900D929A
:102150009A95E1F78093A4010E941C0EBFCF819F46
:10216000C00111248B559E4F0E94A10E8823E9F0D7
:10217000E091A3011E9FF0011124EB55FE4F408119
:10218000518162817381848195810E940C0E8091BE
:10219000A30190E00196877099278093A301809115
:1021A000A3019091A4018913DACF2C960FB6F8946D
:1021B000DEBF0FBECDBFDF91CF911F91089569851E
:1021C0007A858B859C850E940C0E88CF08950C948F
:1021D000E6100E94E7106093E4017093E50180939C
:1021E000E6019093E7010C94C00D08950C94E9105A
:1021F0000F931F930091E4011091E5012091E601F6
:102200003091E701602B712B822B932B1F910F9143
:102210000C94E9100F931F930091E4011091E501D4
:102220002091E6013091E7016023712382239323FB
:102230001F910F910C94E9100F931F930091E401EB
:102240001091E5012091E6013091E70160277127A7
:10225000822793271F910F910C94E9100C94E6109C
:102260000C942E110E9430116093E0017093E101F3
:102270008093E2019093E3010C94C00D60E070E064
:10228000CB010C9432110F931F9341E050E060E0BA
:1022900070E08A019B0104C0000F111F221F331F31
:1022A0008A95D2F7C901B8011F910F910C94321190
:1022B0000F931F9341E050E060E070E004C0440FD2
:1022C000551F661F771F8A95D2F78091E001909184
:1022D000E101A091E201B091E3018A019B01082B89
:1022E000192B2A2B3B2BC901B8011F910F910C947C
:1022F00032110F931F9341E050E060E070E004C0A2
:10230000440F551F661F771F8A95D2F7CB01BA017C
:1023100060957095809590950091E0011091E10194
:102320002091E2013091E301602371238223932302
:102330001F910F910C9432110F931F9341E050E0C5
:1023400060E070E004C0440F551F661F771F8A9538
:10235000D2F78091E0019091E101A091E201B0916A
:10236000E3018A019B01082719272A273B27C90176
:10237000B8011F910F910C9432110F931F9300918C
:10238000E0011091E1012091E2013091E301602B25
:10239000712B822B932B1F910F910C9432110F9361
:1023A0001F930091E0011091E1012091E201309131
:1023B000E30160237123822393231F910F910C94D7
:1023C00032110F931F930091E0011091E1012091D0
:1023D000E2013091E30160277127822793271F9143
:1023E0000F910C9432110895990F990F890F982F1E
:1023F000977041E001C0440F9A95EAF7869586955B
:10240000869595E0899FF0011124E552FE4F30E05A
:1024100020E070E05191DF011197CB01022E02C044
:10242000969587950A94E2F7817081958527842394
:1024300085278C932F5F3F4F2530310559F708953D
:10244000990F990F890F982F977086958695869585
:1024500025E0829FF0011124E552FE4F50E040E05C
:1024600080E0219130E0092E02C0369527950A942C
:10247000E2F721703327042E01C0220F0A94EAF7F5
:10248000822B4F5F5F4F4530510559F70895BF923A
:10249000CF92DF92EF92FF920F931F93CF93DF9330
:1024A0008C01C090E001D090E101E090E201F09059
:1024B000E3018091E4019091E501A091E601B091E2
:1024C000E701C82AD92AEA2AFB2ACFE1D0E0BC2EAC
:1024D000D701C6010C2E04C0B695A7959795879590
:1024E0000A94D2F780FD0EC0219788F7B12C8B2D6E
:1024F000DF91CF911F910F91FF90EF90DF90CF90E0
:10250000BF900895B8018C2F0E940802019761F3D3
:10251000EECFCF93DF93EC010E944712BE01DF9113
:10252000CF910C9408021F93CF93DF93EB0190910E
:10253000A201992331F0CB01DF91CF911F910C942F
:102540008912882379F0CB010E944712182F682F37
:10255000CE010E94F411BE01812FDF91CF911F9116
:102560000C940802CB010E942012182FF4CF682F80
:1025700080910801909109010C947914682F809141
:102580000801909109010C947B14809108019091AD
:1025900009010C947D148091E801859585958595B8
:1025A00008958091E801877008959091E8019770EF
:1025B00081E009F480E008958091F40108959091FC
:1025C000F401892B8093F401089580959091F40192
:1025D00098239093F40108951092F4010895909136
:1025E000F301892B8093F301089580959091F30175
:1025F00098239093F30108951092F3010895109297
:10260000F20108958091E901089508950C9405134D
:102610009091E901981721F08093E9010C94061339
:1026200008958091E901882329F01092E90180E062
:102630000C9406130895E0910801F091090180912E
:10264000F4018083E0910801F0910901808190916B
:10265000F301892B8083E0910801F09109018081C9
:102660009091F201892B80839091E901992381F067
:10267000E0910801F09109018081892B808380918C
:102680000801909109010E94311481110E941113D7
:1026900080910801909109010C94290908950C94E6
:1026A0004E1398E0899F90011124622B6093E801FA
:1026B0000E9458118091E8018595859585950C9427
:1026C0004F131092E80180E00C944F139091E801B1
:1026D000809589238093E801282F277071F4282F93
:1026E000082E000C330B9217130639F0859585954B
:1026F00085950E9479110C946113089580E00895E6
:102700006FEF7FEF90E080E00C94B41C90E080E0ED
:102710000E94901C21E08B3E9E4F09F020E0822F0A
:10272000089582E090E00C94881C83E090E00C9483
:10273000881CCF9384E090E00E94881CC82F81E21F
:1027400090E00E94881C982F8C2FCF910895CF93F2
:10275000C92F682F84E090E00E94961C6C2F81E2C4
:1027600090E0CF910C94961CAB01BC018FE090E0FF
:102770000C94A81CAB01BC0183E190E00C94A81C54
:1027800060E070E0CB010C94BA1360E070E0CB0124
:102790000E94B4130C94C0136BEE7EEF90E080E0C7
:1027A0000E94B41C60E082E090E00E94961C60E011
:1027B00083E090E00E94961C1092E4011092E501E3
:1027C0001092E6011092E70160E084E090E00E9440
:1027D000961C60E081E290E00E94961C60E085E03B
:1027E00090E00E94961C60E086E090E00E94961CBB
:1027F0006FEF87E090E00E94961C40E050E0BA0145
:1028000088E090E00E94A81C60E08DE090E00E94CB
:10281000961C40E050E0BA0188E190E00E94A81CBC
:1028200060E087E190E00E94961C40E050E0BA0131
:102830008CE190E00E94A81C60E080E290E00E94A1
:10284000961C40E050E0BA0188E190E00E94A81C8C
:102850000C94C5130C94CC13682F8EE090E00C946C
:10286000961C9C012E5F3F4FAC01485F5F4F80E09C
:102870002417350709F40895F90191919F019923CF
:10288000B9F38F5FF5CF662349F0FC0132960896C5
:102890002191261729F0E817F907D1F780E008956C
:1028A00081E008959C01FC0132969FEF80E0419108
:1028B000461751F09F3F19F4411101C0982F8F5FC7
:1028C0008630A9F79F3F09F40895290F311D97FD20
:1028D0003A95F90162830895FC0132960896219198
:1028E000261303C0DF0111971C92E817F907B9F707
:1028F00008950C9452140C946C14029626E0FC017A
:1029000011922A95E9F70895089508950C94851475
:1029100080910D02843049F10E94861480E00E946B
:10292000EE011092F60188E190E020E40FB6F894F1
:10293000A895809360000FBE2093600083B7817FCD
:10294000846083BF83B7816083BF7894889583B7A1
:102950008E7F83BF0FB6F894A89580916000886140
:1029600080936000109260000FBE089508950E9449
:1029700084140E940F040E94B61480E00E94E203B7
:1029800091E0811101C090E0892F089508950C9481
:10299000C6140E94D60D0E941D090E94EE010C94DF
:1029A000C7141F921FB61F9211248F939F93AF934A
:1029B000BF938091F601811113C080910302909121
:1029C0000402A0910502B09106024196A11DB11D1D
:1029D0008093030290930402A0930502B093060231
:1029E000BF91AF919F918F911F901FBE1F9018951F
:1029F00082E084BD93E095BD9AEF97BD80936E0011
:102A000008952FB7F8948091030290910402A09149
:102A10000502B09106022FBF08952FB7F894609178
:102A200003027091040280910502909106022FBF6B
:102A300008959C014FB7F89480910302909104028D
:102A4000A0910502B09106024FBF821B930B08951F
:102A500078941F921FB61F9211248F939F93AF9368
:102A6000BF938091030290910402A0910502B0915E
:102A700006020196A11DB11D8093030290930402EA
:102A8000A0930502B0930602BF91AF919F918F91E1
:102A90001F901FBE1F90189581E08093E00080E298
:102AA0008093D8001092C9008FE19EE40197F1F75E
:102AB00000C0000087E090EBDC0180931602909349
:102AC0001702A0931802B093190288E19CE00FB698
:102AD000F894A895809360000FBE90936000FFCF9C
:102AE00090937D0180937C0108950C9480130E9443
:102AF0000F048FE39CE90197F1F700C000000E94EA
:102B00000F0480E00E94E20380FF04C00E9475155C
:102B10000C944C1508950E948613811102C00E94E6
:102B20002A140E9491138093F5010E9499139093A7
:102B30000802809307020E949513682F70E090E0CE
:102B400080E00E94F6106091E0017091E1018091B7
:102B5000E2019091E3010C9430118091FF010895FE
:102B6000CF93DF9300D00F92CDB7DEB790910D02D7
:102B7000943019F589837B836A8382E08093E9002E
:102B80008FEF9091E800815095FD06C095ED9A95E4
:102B9000F1F700008111F5CF8091E80085FF0DC0AD
:102BA00050E040E063E070E0CE0101960E94C9175A
:102BB0008091E8008E778093E8000F900F900F903F
:102BC000DF91CF910895BC0184E00C94B015BC0155
:102BD00083E00C94B0159C0182E08093E9009FEFA4
:102BE0008091E800915085FD06C085ED8A95F1F74A
:102BF00000009111F5CF8091E80085FF0CC050E0F6
:102C000040E066E070E0C9010E94C9178091E800C9
:102C10008E778093E8000895CF93DF93EC0181E0F5
:102C20008093E9008FEF9091E800815095FD06C0F8
:102C300095ED9A95F1F700008111F5CF8091E800AC
:102C400085FF14C050E040E068E070E0CE010E94D3
:102C5000C9178091E8008E778093E80088E0FE0134
:102C6000A7EFB1E001900D928A95E1F7DF91CF9146
:102C7000089580910C02811109C00E9459190E9487
:102C8000B6198091E20084608093E200089510926A
:102C90000C02089508950895089542E061EC81E0E2
:102CA0000E94D51842E261EC82E00C94D518809124
:102CB0000F02833009F45FC030F48130C1F18230FB
:102CC00009F49BC008958A3009F487C08B3009F459
:102CD0006DC0893009F04EC080910E02813209F03A
:102CE00049C08091120290911302029708F042C0ED
:102CF0008091E800877F8093E8008091E80082FF60
:102D000035C09091F3008091F200029729F48091F0
:102D1000F1008B7F813021F48091F1008093FF01DD
:102D20008091E8008B778093E8000C9409198091DA
:102D30000E02813AF9F48091E800877F8093E800E1
:102D40008091120290911302892B61F468E087EF61
:102D500091E070E00E9418188091E8008B778093D2
:102D6000E800089560E090E080E0F3CF80910D02EC
:102D70008111C3CF089580910E02813AD9F78091D5
:102D8000120290911302892BA9F78091E800877FA6
:102D90008093E8008091E80080FFFCCF80911401CF
:102DA0008093F1008091E8008E77BDCF80910E0274
:102DB000813201F78091120290911302892BD1F692
:102DC0008091E800877F8093E8000E940919809134
:102DD0001002809314010C94D60D80910E02813262
:102DE00049F68091E800877F8093E8000E940919E6
:102DF0008091110280930002089580910E02813A21
:102E000009F0B8CF8091E800877F8093E800809137
:102E1000E80080FFFCCF80910002C2CF84B7877F9B
:102E200084BF0FB6F894A895809160008861809364
:102E30006000109260000FBE80E890E00FB6F8943A
:102E400080936100909361000FBE0E948F090E94E1
:102E500059190E94B6198091E20084608093E200C3
:102E600078940E943F1C0E949F098AE091E00E9492
:102E7000180980910D028530A9F00E94A7090E94CF
:102E80009D090E949E09F5CF0E94881480910B0233
:102E9000882341F00E94B714882321F00E94B317C1
:102EA0000E94D60D80910D02853071F30E94C914E5
:102EB000E4CF0C945B17292F33272330310519F108
:102EC00068F42130310509F444C02230310509F499
:102ED00045C090E080E030E020E025C0213231059F
:102EE00049F122323105A9F780E490E02CEA31E083
:102EF00061157105C1F08BE790E021E331E06130AD
:102F0000710589F0E6CF99278130910581F000970E
:102F100029F00297F1F6E4EBF0E002C0E0EEF0E019
:102F2000849190E09F01FA01318320830895EEECB3
:102F3000F0E0F6CF89E090E026EF30E06115710512
:102F400091F389E090E02FE031E06130710559F3B1
:102F5000C0CF82E190E02FE131E0E5CF8BE390E05C
:102F600024EE30E0E0CF80E189BD82E189BD09B483
:102F700000FEFDCF8091D8008F7D8093D800809196
:102F8000E00082608093E0008091E00081FDFCCF52
:102F90000895AF92BF92CF92DF92FF920F931F934B
:102FA000CF93DF936C01EB018A010E942819F82E60
:102FB000811123C00115110539F0F801808191813B
:102FC000C81BD90BC80ED91EB12CA12C2097A9F073
:102FD0008091E80085FD22C08091E8008E77809383
:102FE000E80001151105A1F0F80180819181A80E7A
:102FF000B91EB182A08285E0F82E8F2DDF91CF918E
:103000001F910F91FF90DF90CF90BF90AF900895E8
:103010000E9428198823D1F2F82EEFCFF601819172
:103020006F018093F1002197FFEFAF1ABF0ACECF57
:10303000FC01809114029091150286179707A0F069
:103040006115710529F49091E8009E779093E8004E
:1030500090E06115710551F4911108C08091E8006C
:1030600082FF34C080E00895BC01F2CF80910D0250
:103070008823C1F18530C1F18091E80083FD30C023
:103080008091E80082FDEACF8091E80080FFE1CFE7
:103090008091F3002091F200382F6115710519F02D
:1030A0002830310558F091E02830310509F090E0E2
:1030B0002091E8002E772093E800CBCF8191809378
:1030C000F100615071092F5F3F4FE7CF80910D02F2
:1030D000882341F0853041F08091E80083FFBECF26
:1030E00081E0089582E0089583E00895FC018091D5
:1030F00014029091150286179707A0F061157105CB
:1031000029F48091E8008E778093E80090E06115C3
:10311000710551F4911108C08091E80082FF35C01B
:1031200080E00895BC01F2CF80910D028823C9F19F
:103130008530C9F18091E80083FD31C08091E800BD
:1031400082FDEACF8091E80080FFE1CF8091F3001B
:103150002091F200382F6115710519F028303105E2
:1031600058F091E02830310509F090E08091E800B6
:103170008E778093E800CBCF84918093F1003196D5
:10318000615071092F5F3F4FE6CF80910D02882378
:1031900041F0853041F08091E80083FFBDCF81E0B0
:1031A000089582E0089583E00895982F973028F0DD
:1031B0008F708093E90081E008959093E900242FB7
:1031C000762F50E0981731F07091EC002091ED00CF
:1031D0005091F00021FD02C09F5FE8CF3091EB00DD
:1031E0003E7F3093EB003091ED003D7F3093ED005A
:1031F0003091EB0031603093EB007093EC00209342
:10320000ED005093F0002091EE0027FDE5CF80E027
:10321000089580910E0287FF13C08091E80082FF1D
:1032200006C08091E8008B778093E80004C080910D
:103230000D028111F2CF089580910D028823D9F3F8
:103240008091E80080FFF8CF8091E8008E77ECCF86
:103250002091E4003091E50095E6A9012091EC0071
:10326000822F817020FF06C08091E80080FF06C099
:1032700080E008952091E80022FD1AC080910D029F
:10328000882389F0853089F08091EB0085FD0FC09F
:103290002091E4003091E50042175307F9F2915074
:1032A000E1F684E0089582E0089583E0089581E0E6
:1032B00008950E94C7190E94CF19E0EEF0E08081C6
:1032C00081608083E8EDF0E080818F77808319BC96
:1032D000A7EDB0E08C918E7F8C9380818F7E808370
:1032E00010920C0208950F931F93CF93DF930E94C7
:1032F000C7190E94CF19C8EDD0E088818F778883E5
:1033000088818068888388818F7D888319BC10922A
:103310000D021092090210920B0210920A0200EEA6
:1033200010E0F80180818B7F8083888181608883B1
:1033300042E060E080E00E94D518E1EEF0E080819C
:103340008E7F8083E2EEF0E08081816080838081E7
:1033500088608083F80180818E7F8083888180618E
:103360008883DF91CF911F910F910895E8EDF0E0F0
:1033700080818F7E8083E7EDF0E0808181608083B3
:1033800084E082BF81E080930C020C947319E8ED15
:10339000F0E080818E7F80831092E2000895109289
:1033A000DA001092E10008951F920F920FB60F926B
:1033B00011242F933F934F935F936F937F938F933A
:1033C0009F93AF93BF93EF93FF938091E10082FFB0
:1033D0000BC08091E20082FF07C08091E1008B7FEB
:1033E0008093E1000E943E1C8091DA0080FF19C0AA
:1033F0008091D80080FF15C08091DA008E7F809385
:10340000DA008091D90080FF96C080E189BD82E119
:1034100089BD09B400FEFDCF81E080930D020E94BA
:1034200039168091E10080FF19C08091E20080FF91
:1034300015C08091E2008E7F8093E2008091E200CF
:1034400080618093E2008091D80080628093D800F0
:1034500019BC85E080930D020E944B168091E1001B
:1034600084FF2BC08091E20084FF27C080E189BDEA
:1034700082E189BD89B5982F917080FFFBCF809143
:10348000D8008F7D8093D8008091E1008F7E80935B
:10349000E1008091E2008F7E8093E2008091E20063
:1034A00081608093E20080910902882309F449C079
:1034B00084E080930D020E944C168091E10083FF0E
:1034C00029C08091E20083FF25C08091E100877FC1
:1034D0008093E10082E080930D02109209028091B6
:1034E000E1008E7F8093E1008091E2008E7F8093E7
:1034F000E2008091E20080618093E20042E060E0BF
:1035000080E00E94D5188091F00088608093F000E0
:103510000E944A16FF91EF91BF91AF919F918F91B9
:103520007F916F915F914F913F912F910F900FBEBF
:103530000F901F90189519BC10920D020E9447160B
:1035400070CF8091E30087FD93E090930D02B3CF9D
:103550001F920F920FB60F9211242F933F934F9308
:103560005F936F937F938F939F93AF93BF93CF930B
:10357000DF93EF93FF93D091E900DF708091EC002F
:10358000C82FC17080FDC0E81092E9008091F00062
:10359000877F8093F00078940E94EC1A1092E900E3
:1035A0008091F00088608093F000CD2BCF70C093A5
:1035B000E900FF91EF91DF91CF91BF91AF919F9182
:1035C0008F917F916F915F914F913F912F910F90CC
:1035D0000FBE0F901F9018951F93CF93DF93CDB719
:1035E000DEB7AA970FB6F894DEBF0FBECDBF8EE050
:1035F00092E02091F100FC012193CF01F2E08631AD
:103600009F07B9F70E9457168091E80083FF1EC1FB
:1036100080910E0290910F029A3008F017C1E92FA5
:10362000F0E0EA51F34E0C946E1C803899F0823829
:1036300009F00CC1809112028F70873008F006C12A
:103640008093E9008091EB0085FB882780F9109238
:10365000E90006C080910A0290910B0291118260EC
:103660009091E800977F9093E8008093F10010928A
:10367000F1008091E8008E77E5C0882309F4D3C07B
:10368000823009F0E3C0809110028111D6C0809190
:1036900012028F702FEF280F263008F0D7C08093CA
:1036A000E9002091EB0020FFC8C0933031F48091F5
:1036B000EB0080628093EB00C0C09091EB009061C2
:1036C0009093EB0021E030E001C0220F8A95EAF7E9
:1036D0002093EA001092EA008091EB008860EACF24
:1036E0008111B4C0109110021F778091E30080789F
:1036F000812B8093E3008091E800877F8093E8002E
:103700000E9409198091E80080FFFCCF8091E300BE
:1037100080688093E30082E0111183E080930D02C2
:1037200095C08058823008F091C08091100290912D
:1037300011028C3D23E09207A1F583E08A838AE29F
:1037400089834FB7F894DE01139620E03EE051E202
:10375000E32FF0E050935700E49120FF03C0E2957F
:10376000EF703F5FEF708E2F90E0EA30C0F0C796A9
:103770008D939D932F5F243159F74FBF8091E800BF
:10378000877F8093E8006AE270E0CE0101960E9494
:1037900018188091E8008B778093E80057C0C09696
:1037A000E7CF6091120270911302AE014F5F5F4F3D
:1037B0000E945917BC01892B09F448C09091E80078
:1037C000977F9093E80089819A810E947618E1CFD3
:1037D0008038E1F58091E800877F8093E800809150
:1037E00009028093F10045CF811130C09091100201
:1037F000923060F58091E800877F8093E800909395
:1038000009020E94091980910902882311F084E0BD
:1038100005C08091E30087FDFACF81E080930D021F
:103820000E944D1613C080911002813079F481E01E
:10383000933009F080E080930B021092E9008091B0
:10384000E800877F8093E8000E9409198091E800D2
:1038500083FF0AC08091E800877F8093E800809111
:10386000EB0080628093EB00AA960FB6F894DEBF5F
:103870000FBECDBFDF91CF911F9108950895CF93D3
:1038800080910D028823A1F0C091E900CF70909142
:10389000EC00892F817090FD80E8C82B1092E90020
:1038A0008091E80083FD0E94EC1ACF70C093E9007C
:1038B000CF91089597FB072E16F4009407D077FD5B
:1038C00009D00E94741C07FC05D03EF490958195A8
:1038D0009F4F0895709561957F4F0895EE0FFF1FDC
:1038E0000590F491E02D0994AA1BBB1B51E107C080
:1038F000AA1FBB1FA617B70710F0A61BB70B881F80
:10390000991F5A95A9F780959095BC01CD0108950E
:10391000F999FECF92BD81BDF89A992780B5089597
:10392000A8E1B0E042E050E00C94BC1C262FF999CD
:10393000FECF92BD81BDF89A019700B4021639F00E
:103940001FBA20BD0FB6F894FA9AF99A0FBE0895DF
:103950000396272F0E94971C0E94961C252F0E94D9
:10396000971C242F0C94971C0196272F0E94971CBC
:103970000C94961CDC01CB01FC01F999FECF06C02A
:10398000F2BDE1BDF89A319600B40D92415050401D
:10399000B8F70895F894FFCFAF0BAF0B070C070CE7
:1039A000590C750CDC0BDC0B800C0C0D1B0D1B0D6E
:1039B000E50DE50DEE0DEE0DF00DEE0DEE0DEE0D3F
:1039C000E50DE50DF50DEE0DEE0DF50D151B3D1B91
:1039D000261C3D1B261C701B911B261CE81BF41B80
:1039E0002808641E140A321EEA01AD150C16EB15E8
:1039F000E715E31501E200E900EA00B500B600B7FB
:103A000000CD008301CC008A0192019401210223A0
:103A10000224022502260227022A02B300B4006F04
:103A200000700081828335369697E200E900EA0053
:103A3000B500B600B700CD008301CC008A01920129
:103A400094012102230224022502260227022A02CF
:0C3A5000B300B4006F007000818283009E
:00000001FF
