:100000000C941A010C9461010C9461010C9461012F
:100010000C9461010C9461010C9461010C946101D8
:100020000C9461010C9461010C940C1B0C94DE1B6C
:100030000C943A160C9461010C9461010C946101CA
:100040000C9461010C9461010C9461010C946101A8
:100050000C9461010C9493160C9461010C94610151
:100060000C9461010C9461010C9461010C94610188
:100070000C9461010C9461010C9461010C94610178
:100080000C9461010C9461010C9461010C94610168
:100090000C9461010C9461010C9461010C94610158
:1000A0000C9461010C9461010C946101870C870C24
:1000B000B90CB90C060D240D380E380E2F0DC80DD5
:1000C000D90DD90DD80ED80EEA0EEA0EE10EEA0EC1
:1000D000EA0EEA0ED80ED80EE60EEA0EEA0EE60E8C
:1000E0004B1C721C6A1D721C6A1DBE1CE11C6A1D21
:1000F000381D471D5000510052004F001803670083
:1001000072006F006F007600650062006F00610092
:100110007200640000001003690061006E006B0053
:100120006C007500670000000403090409023B002D
:10013000020100A0FA0904000001030101000921E5
:100140001101000122400007058103080001090494
:1001500001000103000000092111010001227B00C0
:100160000705820320000112011001000000084C65
:100170004B424701000102000105010902A101856E
:10018000020901A100050919012908150025019599
:1001900008750181020501093009311581257F9516
:1001A000027508810609381581257F95017508813A
:1001B00006050C0A38021581257F95017508810610
:1001C000C0C005010980A101850319012AB70015E6
:1001D0000126B700950175108100C0050C0901A129
:1001E00001850419012AA002150126A002950175B6
:1001F000108100C005010906A101050719E029E7E2
:100200001500250195087501810295017508810188
:100210000507190029FF150026FF009506750881BE
:1002200000050819012905950575019102950175CB
:10023000039101C011241FBECFEFDAE0DEBFCDBFB6
:1002400004B603FE27C08091160290911702A09178
:100250001802B09119028730904BA740B04BD1F4EF
:1002600010921602109217021092180210921902A0
:1002700014BE84B7877F84BF0FB6F894A895809189
:100280006000886180936000109260000FBEE0E023
:10029000F8E3099511E0A0E0B1E0E0E2FCE302C080
:1002A00005900D92AC37B107D9F722E0ACE7B1E089
:1002B00001C01D92A631B207E1F70E9446180C94C6
:1002C0000E1E0C94000081E0089581E008950C94C6
:1002D000650108950C9469011F93CF93DF9300D0BB
:1002E00000D01F92CDB7DEB749835A836B8330911C
:1002F000A20189819A81311114C0662359F0222309
:1003000049F00E949213182F682F89819A810E94C8
:100310003D1303C00E946713182F69817A81812FD2
:1003200004C00E94921369817A810F900F900F9000
:100330000F900F90DF91CF911F910C942B02FC0135
:10034000262F408151816281738184810C946C01DC
:10035000CF93DF93EC0160E00E949F01BE01DF912B
:10036000CF910C946A010E942D040C945F040C94AC
:100370005B0408950E94C60E0E94B9012FEF84E32A
:100380009CE0215080409040E1F700C000000C94B8
:10039000B9160F931F93CF93DF938C0161E00E94F6
:1003A0009F01EC01B8010E9467018823F1F1B801B7
:1003B000CE010E940A088823C1F1B801CE010E9433
:1003C0005C08882391F1B801CE010E948709882337
:1003D00061F1F8018281882309F1CB358DE5D807D9
:1003E000C1F050F4C115FCE5DF0781F0CF3DDC45DD
:1003F000A9F40E94961519C0CC35EDE5DE0761F031
:10040000CD35DD4559F40E94251408C00E94BA017B
:100410000CC00E942E1402C00E943114C801DF914A
:10042000CF911F910F910C94630180E0DF91CF91E8
:100430001F910F91089508950C941B0281E0089577
:100440000C941E02CF93C82F0E941C028C2F0E9476
:100450002002CF910895E72FF0E0E80FF11DEE0F95
:10046000FF1FEE0FFF1FE60FF11DEE0FFF1FEC50F9
:10047000FF4F859194910895CF93DF930E942B02B3
:100480000E943E03EC01811521E5920708F043C06C
:10049000811540E5940708F08AC0883E910520F553
:1004A000803E910508F0E6C0883A910570F4853ADF
:1004B000910508F074C08130910509F4DBC008F49F
:1004C000D7C0049708F0D6C0D3C08F3B910508F081
:1004D000CFC0C85AD0E0CC0FDD1FCB5EDE4F0990F5
:1004E000D881C02DD464C6C0C11580E2D80758F4A5
:1004F000C11521E0D20708F0BDC0CD3ED10508F4FA
:10050000B7C0D065B7C0C11540E4D40708F4B0C087
:10051000DF70D06AAFC0C11585E5D807A0F4C1155A
:1005200024E5D20708F08AC0C11543E5D40708F0D6
:100530006FC0C11582E5D80708F054C0DC2FCC2766
:10054000C16FD06A97C0C11529E5D207A0F4C115C3
:1005500048E5D40708F077C0C11586E5D80708F04C
:1005600087C08C2F0E94D2038F71C82FD0E0DC2F60
:10057000CC27D0627FC0C1152AE5D20708F468C035
:10058000CE0190568115904208F072C08D2F8F7168
:100590000E94D203DD27D0628F71D82B6BC0C55A61
:1005A000D0E0CD5BDE4FC881D0E0D06463C074E0A2
:1005B000969587957A95E1F783709C2F937021E04B
:1005C00030E002C0220F331F9A95E2F73C68382BC7
:1005D000CF70C695C69580E2C89FE0011124C22B5A
:1005E000D32B48C0CE018370992721E030E002C0B0
:1005F000220F331F8A95E2F78C2F8695869540E26D
:10060000849FC0011124E901C82BD92BDC6832C0BA
:10061000CE018370992721E030E002C0220F331F02
:100620008A95E2F78C2F8695869540E2849FC001DB
:100630001124E901C82BD92BDA681CC0DC2FCC2788
:10064000C46FD06A17C0DC2FCC27C06FD06A12C02D
:100650008C2F8F700E94D20394E0D695C7959A95FF
:10066000E1F7CF70D0E0DC2FCC27D069C82B02C0D7
:10067000C0E0D0E0CE01DF91CF910895823891059E
:1006800069F1B0F48133910509F46DC048F4893201
:10069000910509F463C08A32910509F469C008958F
:1006A0008533910509F455C089339105B9F0089552
:1006B000833E910569F138F4803E9105B1F0823EA8
:1006C000910509F10895863E9105A9F1873E9105AE
:1006D000B9F1843E910509F064C023C02091010264
:1006E00020FD4FC021FD4DC008958091010280FD85
:1006F00044C08091020280FF44C08091010284FDC9
:1007000042C083EE4DC08091010282FF38C0F5CF18
:100710008091010282FD33C08091020280FD31C0D0
:10072000ECCF8091020281FF32C08091010284FDF2
:100730002AC087EE35C08091010283FF26C0F5CF25
:100740008091010283FD21C08091020281FD1FC0C2
:10075000ECCF8091010285FD1CC01DC0809101027B
:1007600085FD19C016C08091010286FD16C017C014
:100770008091010286FD13C010C089E311C082EE92
:100780000FC080EE0DC080E00BC086EE09C084EE85
:1007900007C089E205C085E303C08AE201C081E3A6
:1007A00090E008959091010292FF0DC0282F2871CA
:1007B000283019F4877F846006C0282F24712430E4
:1007C00011F48B7F886093FF0DC0282F287128318A
:1007D00019F4877E846106C0282F2471243111F416
:1007E0008B7E88612091020220FF0DC0382F387166
:1007F000383019F4877F816006C0382F317131306D
:1008000011F48E7F886021FF0DC0282F28712831B8
:1008100019F4877E816106C0282F2171213111F4DE
:100820008E7E886194FD877E08950C94E8140E9462
:100830008F048FE39CE90197F1F700C000000E944C
:100840008F0480E00E94510480FF04C00E941504C0
:100850000C94B91608950C9417040E94EE1481119B
:1008600002C00E9496150E94F9148093F5010E941F
:10087000011590930202809301020E942B040E94B2
:10088000FD14682F70E080E090E00E943F126091BC
:10089000E0017091E1018091E2019091E3010C94FB
:1008A0007712E82FF0E0EC5FFD4F80810895089506
:1008B00008950C9458040C9459040C9458040C9406
:1008C0005D04CF93DF93A6E4B1E06AE471E041E018
:1008D00050E08D918F3F71F46A177B07D1F710922A
:1008E00003021092040281E00E94CD04DF91CF91B7
:1008F0000C94B301E82FE295EF70F0E021A18F7026
:10090000EA0102C0CC0FDD1F8A95E2F7CE019C2FD1
:100910009095922391A392A1892B82A3DDCFCF93AF
:10092000A6E4B1E040E050E030E061E070E02D91FD
:100930002F3FC1F0E22FE295EF70F0E080A190E050
:100940002F7002C0959587952A95E2F780FD07C024
:10095000CB01042E01C0880F0A94EAF702C080E0A0
:1009600090E0382B4F5F5F4F4430510501F7809185
:100970000302831721F030930302C1E001C0C0E0FD
:100980002C2F41E064E072E083E092E00E94CE040C
:100990000E94B7018C2FCF9108950895FF920F9375
:1009A0001F93CF93DF938C01F62ED72FC42F2223D2
:1009B00049F081E0809380010E946C1690937F0142
:1009C00080937E01809180018823C1F080917E0117
:1009D00090917F010E948416069780F0EF2DFD2FE5
:1009E000D8014C2F50E0CD01801B910B8417950747
:1009F0001CF48D918193F7CF10928001DF91CF91FC
:100A00001F910F91FF9008958091870180FF0BC087
:100A10006091050185E0689FB00111247595679587
:100A2000759567952BC081FF09C06091050185E030
:100A3000689FB00111247595679520C082FF07C09B
:100A40006091050185E0689FB001112417C0909165
:100A500086019923D1F060910401961788F72091BF
:100A6000050185E0289F90011124929FA001939F8A
:100A7000500D112470E0CA010E949E1D603871055E
:100A800040F46115710519F406C065E070E0862F29
:100A900008958FE7089581E008958091870180FF90
:100AA00008C06091010170E075956795759567952F
:100AB00021C081FF06C06091010170E075956795C6
:100AC00019C082FF04C06091010170E010C09091D4
:100AD0008501992399F0609100019617A0F7809104
:100AE0000101899FC001112470E00E949E1D6038A1
:100AF000710540F46115710519F406C061E070E0FC
:100B0000862F08958FE7089581E008958D3E21F4A2
:100B10000E940405819504C08E3E29F40E940405BC
:100B200080938B0108958F3E21F40E9404058195E6
:100B300004C0803F29F40E94040580938A0108952F
:100B4000893F19F40E944D0505C08A3F31F40E9487
:100B50004D05819580938C0108958B3F21F40E946F
:100B60004D05819504C08C3F29F40E944D0580936A
:100B70008D0108959FE0980F983078F421E030E0DF
:100B8000A90102C0440F551F9A95E2F7CA0190913E
:100B90008901892B8093890108958D3F21F48091EB
:100BA000870181600BC08E3F21F4809187018260B4
:100BB00005C08F3F29F4809187018460809387016D
:100BC00008958D3E39F490918B0197FF35C01092B6
:100BD0008B0159C08E3E29F490918B011916BCF3FC
:100BE0002BC090918A018F3E29F497FF25C0109267
:100BF0008A0149C0803F19F41916CCF31DC09091A9
:100C00008C01893F29F41916BCF410928C013BC069
:100C10008A3F19F497FF10C0F8CF8B3F39F49091B9
:100C20008D0197FF09C010928D012DC08C3F21F4DA
:100C300090918D011916BCF39FE0980F983080F4C5
:100C400021E030E0A90102C0440F551F9A95E2F758
:100C5000CA0180959091890189238093890113C0ED
:100C60008D3F21F4809187018E7F0BC08E3F21F450
:100C7000809187018D7F05C08F3F29F48091870186
:100C80008B7F8093870180918A01811106C08091BA
:100C90008B01811102C01092860180918C0181111B
:100CA00006C080918D01811102C0109285010895C6
:100CB0000E946C1620918A01211104C020918B01A1
:100CC000222321F0909384018093830120918C0151
:100CD000211104C020918D01222321F090938201E3
:100CE0008093810188E891E00C94D409EF92FF92FF
:100CF0000F931F93CF93DF9300D000D000D0CDB7D8
:100D0000DEB786E0E8E8F1E0DE01119601900D9291
:100D10008A95E1F7E0908A01F0908B0100918C01B7
:100D200010918D0110928A0110928B0110928C010A
:100D300010928D01E11003C0FF2009F45DC0809185
:100D40008301909184010E948416AC0190918601E8
:100D5000992339F02091060130E02417350758F027
:100D60004BC0209107018AE0289F9001112424178D
:100D7000350718F041C09F3F19F09F5F909386019F
:100D8000EE2061F00E9404051E1414F09FEF01C0D4
:100D900091E0989F902D112490938A01FF2061F09B
:100DA0000E9404051F1414F09FEF01C091E0989F6A
:100DB000902D112490938B0130918A013323E1F01F
:100DC00020918B012223C1F045EB3403C001112493
:100DD000992319F090938A0103C081E080938A01DE
:100DE00035EB2303C0011124992319F090938B0153
:100DF00003C081E080938B01011103C0112309F42A
:100E00005DC080918101909182010E948416AC01A5
:100E100090918501992339F02091020130E0241747
:100E2000350758F04BC0209103018AE0289F9001BC
:100E300011242417350718F041C09F3F19F09F5F18
:100E400090938501002361F00E944D05101614F067
:100E50009FEF01C091E0989F902D112490938C01F9
:100E6000112361F00E944D05111614F09FEF01C08F
:100E700091E0989F902D112490938D0130918C01D9
:100E80003323E1F020918D012223C1F045EB34039F
:100E9000C0011124992319F090938C0103C081E0C3
:100EA00080938C0135EB2303C0011124992319F0A1
:100EB00090938D0103C081E080938D0180918A0120
:100EC00081110BC080918B01811107C080918C0131
:100ED000811103C080918D0181110E945806EB821F
:100EE000FC820D831E8386E0FE013196A8E8B1E006
:100EF00001900D928A95E1F726960FB6F894DEBF21
:100F00000FBECDBFDF91CF911F910F91FF90EF905A
:100F10000895E8E8F1E086E0DF011D928A95E9F79F
:100F200010928601109285011092870108950F9307
:100F30001F93CF93DF93C42FD22FFC01828188238C
:100F4000C9F0409390010E946C1690938F0180939A
:100F50008E0180E28C0F883008F057C0C77081E0A6
:100F600001C0880FCA95EAF7DF91CF911F910F91C9
:100F70000C94420C80919001481330C080918E01F6
:100F800090918F010E948416883C910538F510E2FB
:100F90001D0FCD17B9F080E28C0F883040F4C77078
:100FA00081E001C0880FCA95EAF70E94490C183009
:100FB00028F581E09D2F977001C0880F9A95EAF778
:100FC0000E94420C802F0E94390C1830F0F4D77028
:100FD00081E001C0880FDA95EAF70AC080E28C0F41
:100FE000883098F4C77081E001C0880FCA95EAF78D
:100FF000DF91CF911F910F910C94490C802FDF91BD
:10100000CF911F910F910C94390CDF91CF911F91CB
:101010000F9108950F939C01CB01243F4CE53407B9
:1010200031F188F4293DFCE53F07D9F02A3D4CE534
:10103000340779F1283D3C45A9F506E221EE41EE61
:1010400068ED7CE52BC0263FFCE53F07E1F0A8F00A
:10105000273F3C4539F507E225EE46EE67EF7CE594
:101060001DC007E225EE45EE69ED7CE517C006E2FE
:1010700021EE40EE64EF7CE511C007E225EE44EE80
:1010800065EF7CE50BC006E221EE42EE66EF7CE503
:1010900005C008E221E045EE6AED7CE50E94970775
:1010A00080E008C0FC018281882319F01092900131
:1010B00001C081E00F910895CF93DF93EC01FB0114
:1010C0008281882309F41FC1C230FCE5DF0708F4E0
:1010D0001BC1C6319CE5D90738F09E012B5F3C450A
:1010E0002930310508F010C10E94011590930202C9
:1010F00080930102C031ECE5DE0709F4C3C008F0BB
:1011000041C0C8308CE5D80709F49AC0F0F4C43067
:10111000ECE5DE0709F487C068F4C2308CE5D80737
:1011200009F477C0C330DC4509F0E3C080910102C7
:10113000826076C0C630ECE5DE0709F46EC008F0C8
:101140007BC08091010288606BC0CC308CE5D807F1
:1011500009F485C068F4CA30ECE5DE0709F474C010
:1011600008F079C00E94C60E80910102806858C0C4
:10117000CE308CE5D80709F476C008F07FC08091A6
:1011800001028BC0CC3FECE5DE0709F44FC018F537
:10119000C3318CE5D80709F47DC078F4C131ECE5A2
:1011A000DE0709F473C0C231DC4509F0A2C00E9419
:1011B000C60E809101028F7733C0C5318CE5D80708
:1011C00009F472C008F486C0CB3FDC4509F091C039
:1011D000809102023EC0C115FDE5DF0709F45FC042
:1011E00058F4CE3F9CE5D90709F444C008F43FC049
:1011F0008091020282602DC0C230FDE5DF0709F454
:1012000075C008F45DC0C330DD4509F072C080E0F0
:101210006EC080910102816003C0809101028061F3
:101220008093010266C08091010211C08091020288
:101230008260809302025DC0809101028062F0CFE3
:10124000809101028064ECCF80910102886084600B
:10125000E7CF8160EECF809101028E7FE1CF809158
:1012600001028D7FDDCF80910102877FD9CF8091F0
:10127000020218C0809102028D7FDBCF80910102B3
:101280008F7ECECF809101028F7DCACF80910102E7
:101290008F7BC6CF80910102877F8B7FC1CF8091EA
:1012A00002028D7F8E7FC5CF8091010282FB2227B3
:1012B00020F991E0922790FB82F990FB83F9B0CF5F
:1012C00080910202982F909591708E7F892B90FBD0
:1012D00081F9AFCF0E94C60E8091010287FB2227C1
:1012E00020F991E0922790FB87F99ACF81E00E9444
:1012F000981580910102909102020E9412150E949D
:10130000C60E80E001C081E0DF91CF910895CF93B8
:10131000DF9386319C4541F5EB010E943414982FF0
:101320008A812091080130910901882379F09A7A05
:1013300081E009F480E080939101911102C069E29B
:1013400001C065E3C9010E94DF150AC080919101C7
:10135000811102C069E201C065E3C9010E94E11583
:101360000E94791480E001C081E0DF91CF9108955F
:1013700090939701809396010895E0919601F091E2
:101380009701309721F00190F081E02D099480E0E1
:101390000895E0919601F0919701309721F0028035
:1013A000F381E02D09940895E0919601F091970161
:1013B000309739F022E0DC012C930480F581E02D98
:1013C00009940895209194013091950128173907C7
:1013D00071F09093950180939401E0919601F091C2
:1013E0009701309721F00680F781E02D0994089548
:1013F00020919201309193012817390771F0909351
:10140000930180939201E0919601F09197013097BA
:1014100021F00084F185E02D099408950E9478164A
:1014200060939E0170939F018093A0019093A1010E
:1014300060939A0170939B0180939C0190939D010E
:10144000089585B7806885BF85B7806885BF089592
:1014500081E008950C94280A08950C942C0A0C94A9
:101460002C0A0C942F0A0C942C0A0C94330A0C941A
:101470002C0A0E94210A86EE94E10E94DD160E9449
:10148000370A0C94350A0E942D0A0C942C0A0E94EB
:1014900063160E9461040C94310ADF92EF92FF926E
:1014A0000F931F93CF93DF93CDB7DEB72A970FB675
:1014B000F894DEBF0FBECDBF0E948F0481110E9441
:1014C0000E0A80E00E945104D82EE0909901E8268F
:1014D00089F48FEF89838A831B820E946C16816056
:1014E000782F9D838C8349815A816B818D810E94E5
:1014F000D60A33C08091F50181FD0E945704F12C7A
:1015000011E000E08E2D812301F10E942A0A882338
:10151000A1F0FE821F8291E08D2D812309F490E0DD
:1015200098870E946C168160782F9A8789874E81F0
:101530005F8168858A850E94D60A809199018127FA
:10154000809399010F5F043040F4F394110F84E00D
:10155000F812D8CF002309F4BCCF0E9476060E946F
:10156000BD0990919801891799F00E94BD09809357
:1015700098012A960FB6F894DEBF0FBECDBFDF915B
:10158000CF911F910F91FF90EF90DF900C9422026A
:101590002A960FB6F894DEBF0FBECDBFDF91CF9174
:1015A0001F910F91FF90EF90DF900895DF92EF92DF
:1015B000FF920F931F93CF93DF93CDB7DEB72B9797
:1015C0000FB6F894DEBF0FBECDBFF42E052F162F39
:1015D000E72ED82E61110E945414FE01319686E048
:1015E000DF011D928A95E9F77E2D4F2D502F612F37
:1015F0008D2D9E810E947F112B960FB6F894DEBF31
:101600000FBECDBFDF91CF911F910F91FF90EF9053
:10161000DF900895FC01808191810E94D413089588
:10162000CF93882309F4A4C0C82F8238C1F40E9444
:10163000BD0981FD9DC069E3809108019091090178
:101640000E94DF150E9479142FEF81EE94E0215063
:1016500080409040E1F700C0000069E319C0833882
:1016600001F50E94BD0980FD83C063E580910801FA
:10167000909109010E94DF150E9479142FEF81EEED
:1016800094E0215080409040E1F700C0000063E505
:1016900080910801909109010E94E115CF910C946D
:1016A00079148438C1F40E94BD0982FD61C067E4E9
:1016B00080910801909109010E94DF150E94791420
:1016C0002FEF81EE94E0215080409040E1F700C080
:1016D000000067E4DDCF8CEF8C0F813AD0F46C2FE3
:1016E00080910801909109010E94A915882349F071
:1016F0006C2F80910801909109010E94E1150E94D0
:1017000079146C2F80910801909109010E94DF15D6
:10171000C5CF80E28C0F883048F4C77081E001C0EB
:10172000880FCA95EAF70E943714B8CFEBE5EC0FA3
:10173000E33040F4F0E0E858FE4F808190E0CF9134
:101740000C94E209E8E5EC0FE73150F4F0E0EE0F1D
:10175000FF1FE65BFE4F80819181CF910C94F809C9
:10176000CD3E30F08C2F0E948605CF910C94580608
:10177000CF910895882309F464C0823879F40E94D7
:10178000BD0981FF5EC069E3809108019091090164
:101790000E94DF150E94791469E310C08338B1F408
:1017A0000E94BD0980FF4DC063E5809108019091C2
:1017B00009010E94DF150E94791463E580910801F8
:1017C000909109010E94E1150C947914843879F400
:1017D0000E94BD0982FF35C067E4809108019091A5
:1017E00009010E94DF150E94791467E4E7CF9CEF9E
:1017F000980F913A10F4682FE1CF90E2980F98304B
:1018000050F4877091E001C0990F8A95EAF7892F0B
:101810000E943D14D9CF9BE5980F933020F480E0CF
:1018200090E00C94E20998E5980F973120F480E05D
:1018300090E00C94F8098D3E20F00E94E1050C9494
:10184000580608951F93CF93DF93182FEB010E9442
:10185000100B209741F08FE99FE00197F1F700C04E
:1018600000002197F6CF812FDF91CF911F910C942B
:10187000BA0B893319F060E070E002C060E570E0F7
:101880000C94220C882321F00E9437140C947914B4
:101890000895882321F00E943D140C947914089532
:1018A000CF92DF92EF92FF920F931F93CF93DF932C
:1018B0007C01D62FC72FFC011281058102950F7084
:1018C0000E940C14882399F0112389F08C2F807FBB
:1018D000803421F080E28D0F883048F082E00E9451
:1018E000C9140E940C1491E0D82ED92601C0D12C25
:1018F000CC2EC2948FE0C8228C2D90E08C309105C4
:1019000008F0B6C1FC01EA5AFF4F0C94B21D8C2FAF
:10191000807FCF70882311F0C295C07F112399F08A
:10192000CC2309F491C180E28D0F883010F0D111E1
:1019300004C08C2F0E94371403C08C2F0E944714C0
:101940000E94791481C18D2F0E94BA0BCC2309F417
:101950008FC180E28D0F883010F0D11104C08C2F20
:101960000E943D1403C08C2F0E944D140E947914D4
:101970007FC18C2F807FCF70803211F0C295C07FE5
:10198000DD2319F0D130C9F022C0112371F00023FA
:1019900041F0013031F40E945A148C2B0E946214E1
:1019A00067C10E945A148C2B1DC0002319F001300E
:1019B00009F45EC10E946F1425C0112321F0063086
:1019C00008F056C10EC0053008F052C11BC01123EB
:1019D00061F0002331F0F701858180FF35C18F7000
:1019E00085838C2F0E94420C43C1002359F0D933C8
:1019F00009F03BC1FFEF07EE13E0F150004010404B
:101A0000E1F731C18C2F0E94490C32C18C2F869591
:101A10008695837019F0813061F02AC1112321F07D
:101A20008D2F9C2F937002C080E090E00E94E2090D
:101A300027C1112321F08D2F9C2F937002C080E0CD
:101A400090E00E94F8091CC18D2F112319F00E940B
:101A5000860502C00E94E1050E94580611C18C2F24
:101A6000837009F047C0111107C12D2F22952695CB
:101A70002770220F220F6D2F6F70862F90E0A0E04D
:101A8000B0E0022E04C0880F991FAA1FBB1F0A9442
:101A9000D2F7D4FF10C04FE050E060E070E004C027
:101AA000440F551F661F771F2A95D2F74095509512
:101AB0006095709503C040E050E0BA01C695C695A8
:101AC000C3708A019B01082B192B2A2B3B2BC901C0
:101AD000B801C23049F058F4C13019F00E945312D5
:101AE000CBC00E944112C8C00E946512C5C00E94AE
:101AF0003F12C2C0112319F08C2F817001C086954E
:101B0000882309F4B9C02D2F229526952770220F1E
:101B1000220F6D2F6F70862F90E0A0E0B0E0022EB4
:101B200004C0880F991FAA1FBB1F0A94D2F7D4FFC5
:101B300010C04FE050E060E070E004C0440F551F5B
:101B4000661F771F2A95D2F740955095609570953E
:101B500003C040E050E0BA01C695C695C3708A0143
:101B60009B01082B192B2A2B3B2BC901B801C23032
:101B700049F058F4C13019F00E9418137DC00E943A
:101B800006137AC00E942A1377C00E94791274C08B
:101B9000CF70112339F08C2F0E949F128D2F0E943D
:101BA000420C6AC08D2F0E94490C8C2F0E94C012DB
:101BB00063C0D23F01F128F4D03F41F0D13FA1F002
:101BC0003FC0D33FF9F0D43F39F13AC0112341F07F
:101BD000053008F04DC08C2F8F710E94E51248C06F
:101BE000063008F045C0F7CF112339F08C2F8F71E4
:101BF0000E949F123DC01123C9F38C2F8F710E9448
:101C0000C01236C0112329F08C2F8F710E948A12C6
:101C10002FC00E9485122CC0112349F0CF718C2F48
:101C20000E949F1263E08C2F0E94AE1421C081E0BD
:101C30000E94C9140230E0F082E00E94C91418C06A
:101C4000112331F0002391F28D2F0E94100B10C050
:101C5000002399F2D93349F41FEF27EE33E01150F6
:101C600020403040E1F700C000008D2F0E94BA0BE9
:101C700088EF8C0D843020F40E94BD090E9422025E
:101C8000DD20C9F00E94081480FD15C0F701128202
:101C90000E9402140E949F12C7010E947C0E0E94A3
:101CA0000214DF91CF911F910F91FF90EF90DF9081
:101CB000CF900C94C012DF91CF911F910F91FF90A4
:101CC000EF90DF90CF9008950F931F93CF93DF9302
:101CD000EC01688179818A810E94DF138C010E9466
:101CE0003C130E942D12B801CE010E94500CDF91CE
:101CF000CF911F910F910895CF93DF93EC019881BD
:101D000089812B813C81232B31F08F3F31F481E09D
:101D10009F3F19F403C081E001C080E080FD19C03D
:101D2000CE010E94C90181110CC00E940C148823AD
:101D300081F08A81882369F082E0DF91CF910C9451
:101D4000C914CE010E94640ECE01DF91CF910C9494
:101D5000A801DF91CF91089580E090E00E94E20910
:101D600080E090E00E94F8090E9454140E945714E9
:101D70000E9479140E9489070C94580680910801EA
:101D8000909109010E94E3150C94AC0E0E9444143A
:101D90000C94BE0EE92FE295EF704E2F50E0FA0141
:101DA0003297EE30F105B0F4EE59FF4F0C94B21DAE
:101DB000803F91F018F4883E68F40EC0843F51F4DF
:101DC0000BC0883E48F0813F29F406C093FB88276A
:101DD00080F9089580E0089581E008950E94D41369
:101DE0000E94CA0E0895CF93DF9300D000D01F92B7
:101DF000CDB7DEB70F900F900F900F900F90DF913F
:101E0000CF910895CF93DF9300D000D000D0CDB70D
:101E1000DEB726960FB6F894DEBF0FBECDBFDF91BA
:101E2000CF9108951F93CF93DF93C091A30116E044
:101E30008091A401C81799F0D0E01C9FF0011D9F6C
:101E4000F00D1124EB55FE4F408151816281738169
:101E5000848195810E94020F2196C770E9CFDF919E
:101E6000CF911F9108954091D5015091D601609175
:101E7000D7017091D8018091D9019091DA010C9429
:101E8000020F0F931F93CF93DF938091DA01829516
:101E90008F7009F05DC08091D701882309F458C084
:101EA0008091A3011091A4016091D5017091D60198
:101EB000C091D801D091D90191E06F3F09F090E035
:101EC000292F06E0811709F443C0209721F07F3FB6
:101ED00021F030E003C031E001C0322F90E030FD4E
:101EE00034C0089FF001099FF00D1124DF01AB55AC
:101EF000BE4F11963C911197371327C03C91361372
:101F000024C012963C91129731111FC013964D9127
:101F10005C9114974C1B5D0B483C5105B0F48091CB
:101F2000DA018F7080618093DA01E655FE4F80817F
:101F30008F708061808385ED91E00E947C0EDF913F
:101F4000CF911F910F910C94120F01968770BACF09
:101F5000DF91CF911F910F9108959F92AF92BF9201
:101F6000CF92DF92EF92FF920F931F93CF93DF9365
:101F7000CDB7DEB761970FB6F894DEBF0FBECDBF09
:101F80008C0185E0F801DE011D9601900D928A9585
:101F9000E1F7F80140815181E2809091D501609193
:101FA000D6012091D8013091D9012115310531F0A8
:101FB0006F3F31F481E09F3F19F403C081E001C01D
:101FC00080E0F82FF1709F2E80FD46C1F801A380BC
:101FD000B48085EDC82E81E0D82EF090D701F501B0
:101FE000E21BF30BFF2009F4DFC08091DA01E83C2B
:101FF000F10508F09BC0282F207F09F052C056132E
:1020000013C0491311C0FE2CE1100EC08F70806107
:102010008093DA010E94330FC6010E947C0E8091EA
:10202000DA01F801858358C1AB2831F05F3F31F404
:1020300081E04F3F19F403C081E001C080E080FDE2
:1020400003C081E08E2502C080E090E0F82FF1709F
:10205000FF2E80FF1CC08091A3012091A40136E0D7
:10206000821709F417C190E0389FF001399FF00DF5
:102070001124EB55FE4F6181561306C06081461353
:1020800003C06281E61203C001968770E9CFFE2C7F
:10209000EE2009F421C18091DA0181608093DA0198
:1020A0005AC0561306C0491304C0E11002C0F8011B
:1020B0009FC04D875E878D859E850E94EE0E88238A
:1020C00079F1EE2069F12091DA01822F82958F70EB
:1020D00090E0029774F08091D5019091D601988795
:1020E0008F831986BB86AA862C87CE0107960E940D
:1020F0007C0E86E0F801A5EDB1E001900D928A9585
:10210000E1F70E94410F0E94330F0DC0561729F1CD
:102110004D875E878D859E850E94EE0E81112CC0B5
:10212000C8010E947C0EFF24F394D6C0282F207F84
:1021300069F77A2DB98AA88A6E2D89890E94F30ED3
:1021400085ED91E00E947C0E86E0F60111928A9561
:10215000E9F70E94330FF12CBFC04913D9CFE1102A
:10216000D7CFF8018583C8010E947C0E86E0F60176
:1021700011928A95E9F7B0C0EE2091F22091DA0130
:10218000822F82958F7090E002970CF4B2CF8091ED
:10219000D5019091D6019A8389831B82BD82AC823E
:1021A0002E83CE010196A3CFE83CF10508F047C08D
:1021B000FE2CEE2009F4B4CF561330C049132EC0C4
:1021C0002091DA0120FD21C0822F82958F70482F47
:1021D00050E041155105C9F0F80125834F305105F4
:1021E00041F08F5F982F9295907F822F8F70892B6F
:1021F0008583C8010E947C0E86E0F801A5EDB1E060
:1022000001900D928A95E1F742C086E0F801A5EDB4
:10221000B1E001900D928A95E1F75EC04D875E872F
:102220008D859E850E94EE0E811163CF8091DA012B
:1022300081608093DA01C8010E947C0E4DC07A2D26
:10224000B98AA88A6E2D89890E94F30E86E0F6016C
:1022500011928A95E9F71BC0EE2009F461CF4D87F2
:102260005E878D859E850E94EE0EF82E882309F4E8
:1022700057CF86E0F801A5EDB1E001900D928A9567
:10228000E1F785ED91E00E940A0B0E94410F0E9448
:10229000330F22C04D875E878D859E850E94D413A3
:1022A000292F22952F70223028F49F7039F0811148
:1022B00005C00BC0243028F49F7049F4805E88303C
:1022C00020F0C8010E947C0E9F2CF92C05C0F8015B
:1022D0009581907F99F7F9CF8F2D61960FB6F8947D
:1022E000DEBF0FBECDBFDF91CF911F910F91FF9049
:1022F000EF90DF90CF90BF90AF909F9008951F9385
:10230000CF93DF93CDB7DEB72C970FB6F894DEBF2F
:102310000FBECDBF4F83588769877A878B879C878D
:10232000CE0107960E94AD0F8823D1F09F8188854A
:102330002A853B85232B31F08F3F31F481E09F3F8D
:1023400019F403C081E001C080E080FD47C04F81E7
:10235000588569857A858B859C850E94020F3EC0D1
:1023600086E0FE013796DE01119601900D928A9566
:10237000E1F7FF81E8856A857B856115710531F09C
:10238000EF3F31F481E0FF3F19F403C081E001C069
:1023900080E080FD23C02091A40130E0C9010196B6
:1023A000877099274091A30150E084179507F1F1B8
:1023B000F983EA837D836C8396E0929FD001939F9B
:1023C000B00D1124AB55BE4FFE01319601900D9218
:1023D0009A95E1F78093A4010E94120F16E0809174
:1023E000A3019091A401891771F1189FC0011124D4
:1023F0008B559E4F0E94AD0F882329F1E091A301D8
:102400001E9FF0011124EB55FE4F408151816281E6
:102410007381848195810E94020F8091A30190E0D5
:102420000196877099278093A301D9CF0E94C60E89
:102430001092A4011092A301E5EDF1E086E0DF0126
:102440001D928A95E9F72C960FB6F894DEBF0FBE61
:10245000CDBFDF91CF911F910895089508950C94F9
:102460002E120C942F120E9431126093E40170938B
:10247000E5018093E6019093E7010C94AC0E0C9477
:1024800033120F931F930091E4011091E501209105
:10249000E6013091E701602B712B822B932B1F916A
:1024A0000F910C9433120F931F930091E40110913C
:1024B000E5012091E6013091E70160237123822339
:1024C00093231F910F910C9433120F931F9300913C
:1024D000E4011091E5012091E6013091E7016027C8
:1024E0007127822793271F910F910C9433120C941C
:1024F0002E120E9477126093E0017093E1018093A5
:10250000E2019093E3010C94AC0E60E070E0CB012B
:102510000C9479120F931F9341E050E060E070E05B
:102520008A019B0104C0000F111F221F331F8A95CF
:10253000D2F7C901B8011F910F910C9479120F9332
:102540001F9341E050E060E070E004C0440F551F6D
:10255000661F771F8A95D2F78091E0019091E10183
:10256000A091E201B091E3018A019B01082B192B94
:102570002A2B3B2BC901B8011F910F910C947912A2
:102580000F931F9341E050E060E070E004C0440FFF
:10259000551F661F771F8A95D2F740955095609515
:1025A00070958091E0019091E101A091E201B091DC
:1025B000E3018A019B01082319232A233B23C90134
:1025C000B8011F910F910C9479120F931F9341E062
:1025D00050E060E070E004C0440F551F661F771F95
:1025E0008A95D2F78091E0019091E101A091E201FA
:1025F000B091E3018A019B01082719272A273B276D
:10260000C901B8011F910F910C9479120F931F9378
:102610000091E0011091E1012091E2013091E3018C
:10262000602B712B822B932B1F910F910C9479129D
:102630000F931F930091E0011091E1012091E201BD
:102640003091E30160237123822393231F910F9123
:102650000C9479120F931F930091E0011091E10106
:102660002091E2013091E3016027712782279327AF
:102670001F910F910C9479120895990F990F890F5A
:10268000E82FE695E695E695877051E001C0550F75
:102690008A95EAF785E0E89FF0011124E552FE4FA4
:1026A00020E030E070E04081CB01022E02C0969520
:1026B00087950A94E2F78170819584278523842782
:1026C00081932F5F3F4F2530310569F70895990FAA
:1026D000990F890F682F669566956695982F977064
:1026E00085E0689FB001112440E050E080E0FB01EC
:1026F000E40FF51FE552FE4F208130E0092E02C0A5
:10270000369527950A94E2F721703327042E01C0ED
:10271000220F0A94EAF7822B4F5F5F4F4530510535
:1027200031F70895BF92CF92DF92EF92FF920F930D
:102730001F93CF93DF938C01C090E001D090E10113
:10274000E090E201F090E3018091E4019091E501D5
:10275000A091E601B091E701C82AD92AEA2AFB2A0A
:10276000CFE1D0E0D701C6010C2E04C0B695A795E5
:10277000979587950A94D2F780FD04C0219790F72A
:10278000B12C07C0BC2EB8018C2F0E943C020197CF
:10279000A9F38B2DDF91CF911F910F91FF90EF90B7
:1027A000DF90CF90BF900895CF93DF93EC010E940C
:1027B0009213BE010E943C02DF91CF9108951F93B6
:1027C000CF93DF93EB019091A201992321F0CB01EC
:1027D0000E94D41313C0882349F0CB010E949213A6
:1027E000182F682FCE010E943D1304C0CB010E9418
:1027F0006713182FBE01812F0E943C02DF91CF91F9
:102800001F9108958091E801859585958595089596
:102810008091E801877008959091E801977081E0B8
:1028200009F480E008959091020292FB222720F99A
:10283000281751F080FB92F99093020280910102D7
:10284000909102020C94121508958091020282FB6D
:10285000882780F991E089270C94131481E00C9467
:10286000131480E00C9413148091F4010895909156
:10287000F401892B8093F401089580959091F401DF
:1028800089238093F40108951092F40108959091A2
:10289000F301892B8093F301089580959091F301C2
:1028A00089238093F30108951092F3010895109203
:1028B000F20108958091E901089508950C945D1442
:1028C0000C945E149091020292FD08C09091E9016F
:1028D000981721F08093E9010C9460140895809179
:1028E000E901882329F01092E90180E00C9460143A
:1028F0000895E0910801F09109018091F40180832D
:10290000E0910801F091090190818091F301892BF8
:102910008083E0910801F091090190818091F2019A
:10292000892B80838091E901882381F0E09108015F
:10293000F09109019081892B808380910801909109
:1029400009010E949D1581110E946F148091080158
:10295000909109010C94C9090C945D1490910202A4
:1029600092FD10C098E0899F90011124262B20939E
:10297000E8010E949F128091E801859585958595D3
:102980000C94AC140C949F121092E80180E00C940B
:10299000AC142091E801809582238093E801982F60
:1029A000977041F430E0482F082E000C550B241787
:1029B000350721F49091020292FF07C08595859515
:1029C00085950E94C0120C94C414089580E0089567
:1029D0006FEF7FEF80E090E00C94F81D80E090E0D6
:1029E0000E94D41D21E08A3E9E4F09F020E0822FF4
:1029F000089582E090E00C94CC1D83E090E00C946C
:102A0000CC1DCF9384E090E00E94CC1DC82F82E2C1
:102A100090E00E94CC1D2C2F30E0A901582BCA0158
:102A2000CF910895CF93C92F682F84E090E00E9442
:102A3000DA1D6C2F82E290E0CF910C94DA1DAB018D
:102A4000BC018FE090E00C94EC1DAB01BC0183E174
:102A500090E00C94EC1D60E070E0CB010C94251527
:102A600060E070E0CB010E941F150C942B156AEEFC
:102A70007EEF80E090E00E94F81D60E082E090E050
:102A80000E94DA1D60E083E090E00E94DA1D10925F
:102A9000E4011092E5011092E6011092E70160E076
:102AA00084E090E00E94DA1D60E082E290E00E9403
:102AB000DA1D60E085E090E00E94DA1D60E086E0CB
:102AC00090E00E94DA1D6FEF87E090E00E94DA1D2F
:102AD00040E050E0BA0188E090E00E94EC1D60E028
:102AE0008DE090E00E94DA1D40E050E0BA0188E1FC
:102AF00090E00E94EC1D60E087E190E00E94DA1D0A
:102B000040E050E0BA018CE190E00E94EC1D60E0F2
:102B100070E080E290E00E94F81D40E050E0BA01D1
:102B200088E190E00E94EC1D0C9430150C94371550
:102B3000682F8EE090E00C94DA1DFC01329697E04D
:102B400080E0915029F021912223D9F38F5FF9CFB2
:102B50000895662349F0FC01329608962191621788
:102B600029F0E817F907D1F780E0089581E008958A
:102B70009C01FC0132969FEF80E04191461789F05D
:102B80009F3F19F4411101C0982F8F5F8630A9F73C
:102B90009F3F39F0F901E90FF11D97FDFA95628326
:102BA000089508959C012A5F3F4FFC01428146131E
:102BB00001C01282019682179307B9F708950C9409
:102BC000B8150C94D215029626E0FC0111922A95B4
:102BD000E9F7089508950C94EA150C94EA150E94FB
:102BE000ED150E948F040E94EB1580E00E945104B5
:102BF00091E0811101C090E0892F08950C94EA15AD
:102C00000C94FE1580910D02843049F10E9400164B
:102C100080E00E9422021092F60120E488E190E018
:102C20000FB6F894A895809360000FBE20936000C3
:102C300083B7817F846083BF83B7816083BF7894CB
:102C4000889583B78E7F83BF0FB6F894A89580913F
:102C50006000886180936000109260000FBE08954C
:102C60000C94EA150E94C60E0E94BD090E94220221
:102C70000C9430161F920F920FB60F9211248F935F
:102C80009F93AF93BF938091F601811113C0809100
:102C9000050290910602A0910702B09108024196A8
:102CA000A11DB11D8093050290930602A093070217
:102CB000B0930802BF91AF919F918F910F900FBE7B
:102CC0000F901F90189582E084BD93E095BD9AEF18
:102CD00097BD80936E0008952FB7F89480910502F8
:102CE00090910602A0910702B09108022FBF0895AB
:102CF0002FB7F89460910502709106028091070247
:102D0000909108022FBF08959C014FB7F8948091CD
:102D1000050290910602A0910702B09108024FBFF0
:102D2000821B930B089578941F920F920FB60F9207
:102D300011248F939F93AF93BF938091050290913D
:102D40000602A0910702B09108020196A11DB11DD3
:102D50008093050290930602A0930702B0930802A5
:102D6000BF91AF919F918F910F900FBE0F901F90C9
:102D7000189581E08093E00080E28093D800109263
:102D8000C9008FE19EE40197F1F700C0000087E0E1
:102D900090EBDC018093160290931702A093180227
:102DA000B09319029CE088E10FB6F894A89580933F
:102DB00060000FBE90936000FFCF90937D018093E1
:102DC0007C0108958091FF010895CF93DF9300D097
:102DD0001F92CDB7DEB790910D02943019F589831B
:102DE0007B836A8382E08093E9008FEF9091E80013
:102DF000815095FD06C095ED9A95F1F7000081117F
:102E0000F5CF8091E80085FF0DC040E050E063E021
:102E100070E0CE0101960E9400198091E8008E7743
:102E20008093E8000F900F900F90DF91CF9108955D
:102E3000BC0184E00C94E516BC0183E00C94E5161B
:102E400022E02093E9002FEF3091E800215035FD7A
:102E500006C035ED3A95F1F700002111F5CF20912C
:102E6000E80025FF0BC040E050E066E070E00E9403
:102E700000198091E8008E778093E8000895CF9341
:102E8000DF9321E02093E9002FEF3091E8002150FB
:102E900035FD06C035ED3A95F1F700002111F5CF6B
:102EA0002091E80025FF14C0EC0140E050E068E00C
:102EB00070E00E9400198091E8008E778093E8000E
:102EC00088E0FE01A7EFB1E001900D928A95E1F74D
:102ED000DF91CF91089580910C02811109C00E9469
:102EE000911A0E94EE1A8091E20084608093E200C1
:102EF000089510920C02089508950895089542E0EF
:102F000061EC81E00E940A1A42E261EC82E00C94DA
:102F10000A1A80910F02833009F460C030F48130C6
:102F200071F0823009F499C008958A3009F485C09F
:102F30008B3009F46BC0893009F0A7C020C08091A4
:102F40000E02813A09F0A1C08091E800877F80934A
:102F5000E8008091120290911302892B21F468E01D
:102F600087EF91E003C060E080E090E070E00E94B5
:102F70004B198091E8008B778093E8000895809149
:102F80000E02813209F081C08091120290911302E9
:102F9000029708F07AC08091E800877F8093E8006C
:102FA0008091E80082FD05C080910D028111F8CF6B
:102FB0006CC02091F3008091F20090E0922B029778
:102FC00029F48091F1008B7F813021F48091F10010
:102FD0008093FF018091E8008B7753C080910E02AF
:102FE000813A09F052C08091120290911302892B0C
:102FF00009F04BC08091E800877F8093E8008091C2
:10300000E80080FFFCCF8091140136C080910E0251
:103010008132D9F58091120290911302892BA9F582
:103020008091E800877F8093E8000E943F1A80919A
:103030001002809314010C94C60E80910E0281320E
:1030400021F58091E800877F8093E8000E943F1A75
:103050008091110280930002089580910E02813ABE
:10306000A1F48091E800877F8093E8008091E800D8
:1030700080FFFCCF809100028093F1008091E800F6
:103080008E778093E8000C943F1A089584B7877F69
:1030900084BF0FB6F894A8958091600088618093F2
:1030A0006000109260000FBE90E080E80FB6F894C8
:1030B00080936100909361000FBE0E94390A0E94C4
:1030C000911A0E94EE1A8091E20084608093E200DF
:1030D00078940E94831D0E94470A8AE091E00E9432
:1030E000B80980910D028530A9F480910D028530D8
:1030F00079F40E94021680910B028823B1F30E949A
:10310000EF15882391F30E94EA180E94C60EEDCFB6
:103110000E9432160E944D0A0E94430AE2CF0C948C
:103120009118292F332723303105C9F060F421305D
:10313000310581F02230310509F044C08BE390E085
:103140002CE231E043C021323105E1F02232310579
:1031500049F138C082E190E027E631E037C0992795
:103160008130910549F028F0029761F5ECEFF0E02D
:1031700005C0E8E2F1E002C0E6E1F1E0849190E010
:103180009F0124C06115710541F061307105D1F4D2
:1031900089E090E027E531E019C089E090E02EE376
:1031A00031E014C06115710541F06130710551F4D1
:1031B0008BE790E029E731E009C080E490E024EF5C
:1031C00031E004C080E090E020E030E0FA0131839B
:1031D0002083089580E189BD82E189BD09B400FEA4
:1031E000FDCF8091D8008F7D8093D8008091E00042
:1031F00082608093E0008091E00081FDFCCF089523
:10320000CF92DF92EF92FF920F931F93CF93DF93B2
:10321000EC018B017A010E945E1A811133C0E11426
:10322000F10439F0F70180819181081B190BC80F57
:10323000D91FC12CD12C0115110519F18091E8007D
:1032400085FD16C08091E8008E778093E800E11438
:10325000F10449F0F70180819181C80ED91ED18215
:10326000C08285E00FC00E945E1A882321F30AC045
:1032700089918093F10001501109FFEFCF1ADF0A05
:10328000DACF80E0DF91CF911F910F91FF90EF9007
:10329000DF90CF90089520911402309115022617E7
:1032A000370748F06115710539F42091E8002E7751
:1032B0002093E80001C0B901FC0120E0611571050F
:1032C00079F180910D028823F1F18530F1F180913F
:1032D000E80083FD3CC08091E80082FD2EC0809113
:1032E000E80080FFEBCF2091F3008091F20090E0A6
:1032F000922B6115710551F08830910538F42191B8
:103300002093F100615071090196F3CF21E00897F5
:1033100009F020E08091E8008E778093E800CECF1E
:103320002111CFCF0AC080910D02882361F0853032
:1033300061F08091E80083FD0AC08091E80082FF7F
:10334000F2CF80E0089582E0089583E0089581E05F
:10335000089520911402309115022617370748F07E
:103360006115710539F42091E8002E772093E8006B
:1033700001C0B901FC0120E06115710591F1809156
:103380000D02882309F440C0853009F43FC08091C4
:10339000E80083FD3DC08091E80082FD2FC0809150
:1033A000E80080FFE9CF2091F3008091F20090E0E7
:1033B000922B6115710559F08830910540F42491E4
:1033C0002093F1003196615071090196F2CF21E00E
:1033D000089709F020E08091E8008E778093E8005C
:1033E000CBCF2111CCCF0AC080910D02882361F090
:1033F000853061F08091E80083FD0AC08091E8008B
:1034000082FFF2CF80E0089582E0089583E008957E
:1034100081E00895982F973068F59093E900981708
:1034200039F07091EC002091ED005091F00003C054
:10343000242F762F50E021FD02C09F5FECCF30910A
:10344000EB003E7F3093EB003091ED003D7F3093F9
:10345000ED003091EB0031603093EB007093EC00A5
:103460002093ED005093F0002091EE0027FDE5CF72
:1034700080E008958F708093E90081E00895809145
:103480000E0287FF11C08091E80082FD05C0809187
:103490000D028111F8CF11C08091E8008B770BC02D
:1034A00080910D02882349F08091E80080FFF8CFD9
:1034B0008091E8008E778093E80008952091E400E1
:1034C0003091E50095E64091EC00842F817040FF3B
:1034D00023C08091E80080FD1DC080910D028823EB
:1034E00099F0853099F08091EB0085FD11C04091F5
:1034F000E4005091E5002417350729F3915011F0AD
:103500009A01E1CF84E0089582E0089583E0089570
:1035100081E0089580E008954091E80042FFDDCF0A
:1035200008950E94FF1A0E94071BE0EEF0E08081E0
:1035300081608083E8EDF0E080818F77808319BC23
:10354000A7EDB0E08C918E7F8C9380818F7E8083FD
:1035500010920C0208950F931F93CF93DF930E9454
:10356000FF1A0E94071BC8EDD0E088818F778883FF
:1035700088818068888388818F7D888319BC1092B8
:103580000D021092090210920B0210920A0200EE34
:1035900010E0F80180818B7F80838881816088833F
:1035A00042E060E080E00E940A1AE1EEF0E08081F3
:1035B0008E7F8083E2EEF0E0808181608083808175
:1035C00088608083F80180818E7F8083888180611C
:1035D0008883DF91CF911F910F910895E8EDF0E07E
:1035E00080818F7E8083E7EDF0E080818160808341
:1035F00084E082BF81E080930C020C94AB1AE8ED6A
:10360000F0E080818E7F80831092E2000895109216
:10361000DA001092E10008951F920F920FB60F92F8
:1036200011242F933F934F935F936F937F938F93C7
:103630009F93AF93BF93EF93FF938091E10082FF3D
:103640000BC08091E20082FF07C08091E1008B7F78
:103650008093E1000E94821D8091DA0080FF1FC0EC
:103660008091D80080FF1BC08091DA008E7F80930C
:10367000DA008091D90080FF0DC080E189BD82E130
:1036800089BD09B400FEFDCF81E080930D020E9448
:103690006B1705C019BC10920D020E94791780911A
:1036A000E10080FF19C08091E20080FF15C0809189
:1036B000E2008E7F8093E2008091E200806180933F
:1036C000E2008091D80080628093D80019BC85E028
:1036D00080930D020E947D178091E10084FF30C02D
:1036E0008091E20084FF2CC080E189BD82E189BD28
:1036F00009B400FEFDCF8091D8008F7D8093D80063
:103700008091E1008F7E8093E1008091E2008F7EC6
:103710008093E2008091E20081608093E2008091DA
:103720000902882311F084E007C08091E30087FD3F
:1037300002C081E001C083E080930D020E947E17E9
:103740008091E10083FF29C08091E20083FF25C0C2
:103750008091E100877F8093E10082E080930D02F9
:10376000109209028091E1008E7F8093E1008091A8
:10377000E2008E7F8093E2008091E200806180937E
:10378000E20042E060E080E00E940A1A8091F000CE
:1037900088608093F0000E947C17FF91EF91BF91A9
:1037A000AF919F918F917F916F915F914F913F91D9
:1037B0002F910F900FBE0F901F9018951F920F9290
:1037C0000FB60F9211242F933F934F935F936F93F4
:1037D0007F938F939F93AF93BF93CF93DF93EF9399
:1037E000FF93C091E900CF708091EC00D82FD17089
:1037F00080FDD0E81092E9008091F000877F8093EF
:10380000F00078940E94221C1092E9008091F00050
:1038100088608093F000CD2BCF70C093E900FF91BA
:10382000EF91DF91CF91BF91AF919F918F917F9158
:103830006F915F914F913F912F910F900FBE0F901D
:103840001F9018951F93CF93DF93CDB7DEB7AA973C
:103850000FB6F894DEBF0FBECDBFEEE0F2E0809170
:10386000F100819322E0E631F207C9F70E9489173F
:103870008091E80083FF2EC180910E0290910F028B
:10388000492F50E04A30510508F024C1FA01E059AF
:10389000FF4F0C94B21D803821F0823809F01AC114
:1038A00008C080910A0290910B02992389F08260EE
:1038B0000FC0809112028F70873008F00BC1809387
:1038C000E9008091EB0085FB882780F91092E900E0
:1038D0009091E800977F9093E8008093F100109218
:1038E000F100D1C0282F2D7F09F0F4C0882319F0F2
:1038F000823061F0EFC080911002813009F0EAC09F
:10390000933009F080E080930B022EC0809110026A
:1039100081112AC0809112028F702FEF280F26305C
:1039200008F0D8C08093E9002091EB0020FF1CC074
:10393000933021F48091EB00806214C09091EB00F1
:1039400090619093EB0021E030E0A90102C0440FA8
:10395000551F8A95E2F74093EA001092EA008091A1
:10396000EB0088608093EB001092E9008091E80002
:10397000877F8093E8000E943F1AACC08111AAC0E3
:10398000109110021F778091E3008078812B809343
:10399000E3008091E800877F8093E8000E943F1A4F
:1039A0008091E80080FFFCCF8091E30080688093E5
:1039B000E300111102C082E001C083E080930D0298
:1039C00089C08058823008F085C0809110029091A3
:1039D00011028C3D53E0950779F583E08A838AE2F2
:1039E00089834FB7F894DE01139620E03EE051E260
:1039F000E32FF0E050935700E49120FF03C0E295DD
:103A0000EF703F5FEF708E2F90E0EA3010F0C796B6
:103A100001C0C0968D939D932F5F243149F74FBF0E
:103A20008091E800877F8093E8006AE270E0CE0131
:103A300001960E944B1916C06091120270911302F8
:103A4000AE014F5F5F4F0E948F18BC01892B09F4B4
:103A500041C09091E800977F9093E80089819A8116
:103A60000E94A9198091E8008B778093E80032C00A
:103A7000803881F58091E800877F8093E80080910D
:103A800009028093F1008091E8008E7772CF811156
:103A900021C0809110029091110299270297D4F4CD
:103AA0008091E800877F8093E800809110028093E6
:103AB00009020E943F1A80910902811106C080917B
:103AC000E30087FD02C081E001C084E080930D0225
:103AD0000E947F178091E80083FF0AC08091E80070
:103AE000877F8093E8008091EB0080628093EB00F9
:103AF000AA960FB6F894DEBF0FBECDBFDF91CF916F
:103B00001F9108950895CF9380910D028823A1F00D
:103B1000C091E900CF709091EC00892F817090FDE9
:103B200080E8C82B1092E9008091E80083FD0E9494
:103B3000221CCF70C093E900CF91089597FB072E08
:103B400016F4009407D077FD09D00E94B81D07FC39
:103B500005D03EF4909581959F4F0895709561959D
:103B60007F4F0895EE0FFF1F0590F491E02D09940B
:103B7000AA1BBB1B51E107C0AA1FBB1FA617B70793
:103B800010F0A61BB70B881F991F5A95A9F78095AF
:103B90009095BC01CD010895F999FECF92BD81BDEC
:103BA000F89A992780B50895A8E1B0E042E050E086
:103BB0000C94001E262FF999FECF92BD81BDF89A74
:103BC000019700B4021639F01FBA20BD0FB6F89461
:103BD000FA9AF99A0FBE08950396272F0E94DB1DCB
:103BE0000E94DA1D252F0E94DB1D242F0C94DB1D63
:103BF0000196272F0E94DB1D0C94DA1DDC01CB01FE
:103C0000FC01F999FECF06C0F2BDE1BDF89A3196EC
:103C100000B40D9241505040B8F70895F894FFCF8A
:103C20002808641E140A321EEA01E2163F17201704
:103C30001C17181701E200E900EA00B500B600B74A
:103C400000CD008301CC008A01920194012102235E
:103C50000224022502260227022A02B300B4006FC2
:103C600000700081828335369697E200E900EA0011
:103C7000B500B600B700CD008301CC008A019201E7
:103C800094012102230224022502260227022A028D
:0C3C9000B300B4006F007000818283005C
:00000001FF
